{
  "_format": "hh-sol-artifact-1",
  "contractName": "EventManager",
  "sourceName": "contracts/EventManager.sol",
  "abi": [
    {
      "inputs": [
        {
          "internalType": "address",
          "name": "_accessControl",
          "type": "address"
        },
        {
          "internalType": "address",
          "name": "_ticketNFT",
          "type": "address"
        }
      ],
      "stateMutability": "nonpayable",
      "type": "constructor"
    },
    {
      "inputs": [],
      "name": "AccessControlBadConfirmation",
      "type": "error"
    },
    {
      "inputs": [
        {
          "internalType": "address",
          "name": "account",
          "type": "address"
        },
        {
          "internalType": "bytes32",
          "name": "neededRole",
          "type": "bytes32"
        }
      ],
      "name": "AccessControlUnauthorizedAccount",
      "type": "error"
    },
    {
      "inputs": [],
      "name": "ReentrancyGuardReentrantCall",
      "type": "error"
    },
    {
      "anonymous": false,
      "inputs": [
        {
          "indexed": true,
          "internalType": "uint256",
          "name": "eventId",
          "type": "uint256"
        },
        {
          "indexed": true,
          "internalType": "address",
          "name": "admin",
          "type": "address"
        }
      ],
      "name": "EventApproved",
      "type": "event"
    },
    {
      "anonymous": false,
      "inputs": [
        {
          "indexed": true,
          "internalType": "uint256",
          "name": "eventId",
          "type": "uint256"
        }
      ],
      "name": "EventCancelled",
      "type": "event"
    },
    {
      "anonymous": false,
      "inputs": [
        {
          "indexed": true,
          "internalType": "uint256",
          "name": "eventId",
          "type": "uint256"
        },
        {
          "indexed": true,
          "internalType": "address",
          "name": "organizer",
          "type": "address"
        },
        {
          "indexed": false,
          "internalType": "string",
          "name": "ipfsHash",
          "type": "string"
        },
        {
          "indexed": false,
          "internalType": "uint256",
          "name": "price",
          "type": "uint256"
        },
        {
          "indexed": false,
          "internalType": "uint256",
          "name": "maxTickets",
          "type": "uint256"
        }
      ],
      "name": "EventCreated",
      "type": "event"
    },
    {
      "anonymous": false,
      "inputs": [
        {
          "indexed": true,
          "internalType": "uint256",
          "name": "eventId",
          "type": "uint256"
        },
        {
          "indexed": false,
          "internalType": "uint256",
          "name": "newPrice",
          "type": "uint256"
        }
      ],
      "name": "EventUpdated",
      "type": "event"
    },
    {
      "anonymous": false,
      "inputs": [
        {
          "indexed": true,
          "internalType": "bytes32",
          "name": "role",
          "type": "bytes32"
        },
        {
          "indexed": true,
          "internalType": "bytes32",
          "name": "previousAdminRole",
          "type": "bytes32"
        },
        {
          "indexed": true,
          "internalType": "bytes32",
          "name": "newAdminRole",
          "type": "bytes32"
        }
      ],
      "name": "RoleAdminChanged",
      "type": "event"
    },
    {
      "anonymous": false,
      "inputs": [
        {
          "indexed": true,
          "internalType": "bytes32",
          "name": "role",
          "type": "bytes32"
        },
        {
          "indexed": true,
          "internalType": "address",
          "name": "account",
          "type": "address"
        },
        {
          "indexed": true,
          "internalType": "address",
          "name": "sender",
          "type": "address"
        }
      ],
      "name": "RoleGranted",
      "type": "event"
    },
    {
      "anonymous": false,
      "inputs": [
        {
          "indexed": true,
          "internalType": "bytes32",
          "name": "role",
          "type": "bytes32"
        },
        {
          "indexed": true,
          "internalType": "address",
          "name": "account",
          "type": "address"
        },
        {
          "indexed": true,
          "internalType": "address",
          "name": "sender",
          "type": "address"
        }
      ],
      "name": "RoleRevoked",
      "type": "event"
    },
    {
      "anonymous": false,
      "inputs": [
        {
          "indexed": true,
          "internalType": "uint256",
          "name": "eventId",
          "type": "uint256"
        },
        {
          "indexed": true,
          "internalType": "uint256",
          "name": "tokenId",
          "type": "uint256"
        },
        {
          "indexed": true,
          "internalType": "address",
          "name": "buyer",
          "type": "address"
        },
        {
          "indexed": false,
          "internalType": "uint256",
          "name": "price",
          "type": "uint256"
        }
      ],
      "name": "TicketSold",
      "type": "event"
    },
    {
      "inputs": [],
      "name": "DEFAULT_ADMIN_ROLE",
      "outputs": [
        {
          "internalType": "bytes32",
          "name": "",
          "type": "bytes32"
        }
      ],
      "stateMutability": "view",
      "type": "function"
    },
    {
      "inputs": [],
      "name": "accessControl",
      "outputs": [
        {
          "internalType": "contract TicketAccessControl",
          "name": "",
          "type": "address"
        }
      ],
      "stateMutability": "view",
      "type": "function"
    },
    {
      "inputs": [
        {
          "internalType": "uint256",
          "name": "eventId",
          "type": "uint256"
        }
      ],
      "name": "approveEvent",
      "outputs": [],
      "stateMutability": "nonpayable",
      "type": "function"
    },
    {
      "inputs": [
        {
          "internalType": "uint256",
          "name": "eventId",
          "type": "uint256"
        }
      ],
      "name": "cancelEvent",
      "outputs": [],
      "stateMutability": "nonpayable",
      "type": "function"
    },
    {
      "inputs": [
        {
          "internalType": "string",
          "name": "ipfsHash",
          "type": "string"
        },
        {
          "internalType": "uint256",
          "name": "price",
          "type": "uint256"
        },
        {
          "internalType": "uint256",
          "name": "maxTickets",
          "type": "uint256"
        },
        {
          "internalType": "uint256",
          "name": "startTime",
          "type": "uint256"
        },
        {
          "internalType": "uint256",
          "name": "endTime",
          "type": "uint256"
        },
        {
          "internalType": "uint256",
          "name": "eventDate",
          "type": "uint256"
        }
      ],
      "name": "createEvent",
      "outputs": [
        {
          "internalType": "uint256",
          "name": "",
          "type": "uint256"
        }
      ],
      "stateMutability": "nonpayable",
      "type": "function"
    },
    {
      "inputs": [
        {
          "internalType": "uint256",
          "name": "",
          "type": "uint256"
        }
      ],
      "name": "events",
      "outputs": [
        {
          "internalType": "uint256",
          "name": "eventId",
          "type": "uint256"
        },
        {
          "internalType": "address",
          "name": "organizer",
          "type": "address"
        },
        {
          "internalType": "string",
          "name": "ipfsHash",
          "type": "string"
        },
        {
          "internalType": "uint256",
          "name": "price",
          "type": "uint256"
        },
        {
          "internalType": "uint256",
          "name": "maxTickets",
          "type": "uint256"
        },
        {
          "internalType": "uint256",
          "name": "soldTickets",
          "type": "uint256"
        },
        {
          "internalType": "uint256",
          "name": "startTime",
          "type": "uint256"
        },
        {
          "internalType": "uint256",
          "name": "endTime",
          "type": "uint256"
        },
        {
          "internalType": "uint256",
          "name": "eventDate",
          "type": "uint256"
        },
        {
          "internalType": "bool",
          "name": "approved",
          "type": "bool"
        },
        {
          "internalType": "bool",
          "name": "cancelled",
          "type": "bool"
        }
      ],
      "stateMutability": "view",
      "type": "function"
    },
    {
      "inputs": [],
      "name": "getCurrentEventId",
      "outputs": [
        {
          "internalType": "uint256",
          "name": "",
          "type": "uint256"
        }
      ],
      "stateMutability": "view",
      "type": "function"
    },
    {
      "inputs": [
        {
          "internalType": "uint256",
          "name": "eventId",
          "type": "uint256"
        }
      ],
      "name": "getEvent",
      "outputs": [
        {
          "components": [
            {
              "internalType": "uint256",
              "name": "eventId",
              "type": "uint256"
            },
            {
              "internalType": "address",
              "name": "organizer",
              "type": "address"
            },
            {
              "internalType": "string",
              "name": "ipfsHash",
              "type": "string"
            },
            {
              "internalType": "uint256",
              "name": "price",
              "type": "uint256"
            },
            {
              "internalType": "uint256",
              "name": "maxTickets",
              "type": "uint256"
            },
            {
              "internalType": "uint256",
              "name": "soldTickets",
              "type": "uint256"
            },
            {
              "internalType": "uint256",
              "name": "startTime",
              "type": "uint256"
            },
            {
              "internalType": "uint256",
              "name": "endTime",
              "type": "uint256"
            },
            {
              "internalType": "uint256",
              "name": "eventDate",
              "type": "uint256"
            },
            {
              "internalType": "bool",
              "name": "approved",
              "type": "bool"
            },
            {
              "internalType": "bool",
              "name": "cancelled",
              "type": "bool"
            }
          ],
          "internalType": "struct EventManager.Event",
          "name": "",
          "type": "tuple"
        }
      ],
      "stateMutability": "view",
      "type": "function"
    },
    {
      "inputs": [
        {
          "internalType": "uint256",
          "name": "eventId",
          "type": "uint256"
        }
      ],
      "name": "getEventApproved",
      "outputs": [
        {
          "internalType": "bool",
          "name": "",
          "type": "bool"
        }
      ],
      "stateMutability": "view",
      "type": "function"
    },
    {
      "inputs": [
        {
          "internalType": "uint256",
          "name": "eventId",
          "type": "uint256"
        }
      ],
      "name": "getEventMaxTickets",
      "outputs": [
        {
          "internalType": "uint256",
          "name": "",
          "type": "uint256"
        }
      ],
      "stateMutability": "view",
      "type": "function"
    },
    {
      "inputs": [
        {
          "internalType": "uint256",
          "name": "eventId",
          "type": "uint256"
        }
      ],
      "name": "getEventOrganizer",
      "outputs": [
        {
          "internalType": "address",
          "name": "",
          "type": "address"
        }
      ],
      "stateMutability": "view",
      "type": "function"
    },
    {
      "inputs": [
        {
          "internalType": "uint256",
          "name": "eventId",
          "type": "uint256"
        }
      ],
      "name": "getEventPrice",
      "outputs": [
        {
          "internalType": "uint256",
          "name": "",
          "type": "uint256"
        }
      ],
      "stateMutability": "view",
      "type": "function"
    },
    {
      "inputs": [
        {
          "internalType": "uint256",
          "name": "eventId",
          "type": "uint256"
        }
      ],
      "name": "getEventStatus",
      "outputs": [
        {
          "internalType": "enum EventManager.EventStatus",
          "name": "",
          "type": "uint8"
        }
      ],
      "stateMutability": "view",
      "type": "function"
    },
    {
      "inputs": [
        {
          "internalType": "address",
          "name": "organizer",
          "type": "address"
        }
      ],
      "name": "getOrganizerEvents",
      "outputs": [
        {
          "internalType": "uint256[]",
          "name": "",
          "type": "uint256[]"
        }
      ],
      "stateMutability": "view",
      "type": "function"
    },
    {
      "inputs": [
        {
          "internalType": "bytes32",
          "name": "role",
          "type": "bytes32"
        }
      ],
      "name": "getRoleAdmin",
      "outputs": [
        {
          "internalType": "bytes32",
          "name": "",
          "type": "bytes32"
        }
      ],
      "stateMutability": "view",
      "type": "function"
    },
    {
      "inputs": [
        {
          "internalType": "bytes32",
          "name": "role",
          "type": "bytes32"
        },
        {
          "internalType": "address",
          "name": "account",
          "type": "address"
        }
      ],
      "name": "grantRole",
      "outputs": [],
      "stateMutability": "nonpayable",
      "type": "function"
    },
    {
      "inputs": [
        {
          "internalType": "bytes32",
          "name": "role",
          "type": "bytes32"
        },
        {
          "internalType": "address",
          "name": "account",
          "type": "address"
        }
      ],
      "name": "hasRole",
      "outputs": [
        {
          "internalType": "bool",
          "name": "",
          "type": "bool"
        }
      ],
      "stateMutability": "view",
      "type": "function"
    },
    {
      "inputs": [
        {
          "internalType": "address",
          "name": "",
          "type": "address"
        },
        {
          "internalType": "uint256",
          "name": "",
          "type": "uint256"
        }
      ],
      "name": "organizerEvents",
      "outputs": [
        {
          "internalType": "uint256",
          "name": "",
          "type": "uint256"
        }
      ],
      "stateMutability": "view",
      "type": "function"
    },
    {
      "inputs": [
        {
          "internalType": "uint256",
          "name": "eventId",
          "type": "uint256"
        },
        {
          "internalType": "string",
          "name": "tokenURI",
          "type": "string"
        }
      ],
      "name": "purchaseTicket",
      "outputs": [
        {
          "internalType": "uint256",
          "name": "",
          "type": "uint256"
        }
      ],
      "stateMutability": "payable",
      "type": "function"
    },
    {
      "inputs": [
        {
          "internalType": "bytes32",
          "name": "role",
          "type": "bytes32"
        },
        {
          "internalType": "address",
          "name": "callerConfirmation",
          "type": "address"
        }
      ],
      "name": "renounceRole",
      "outputs": [],
      "stateMutability": "nonpayable",
      "type": "function"
    },
    {
      "inputs": [
        {
          "internalType": "bytes32",
          "name": "role",
          "type": "bytes32"
        },
        {
          "internalType": "address",
          "name": "account",
          "type": "address"
        }
      ],
      "name": "revokeRole",
      "outputs": [],
      "stateMutability": "nonpayable",
      "type": "function"
    },
    {
      "inputs": [
        {
          "internalType": "bytes4",
          "name": "interfaceId",
          "type": "bytes4"
        }
      ],
      "name": "supportsInterface",
      "outputs": [
        {
          "internalType": "bool",
          "name": "",
          "type": "bool"
        }
      ],
      "stateMutability": "view",
      "type": "function"
    },
    {
      "inputs": [],
      "name": "ticketNFT",
      "outputs": [
        {
          "internalType": "contract TicketNFT",
          "name": "",
          "type": "address"
        }
      ],
      "stateMutability": "view",
      "type": "function"
    },
    {
      "inputs": [
        {
          "internalType": "uint256",
          "name": "eventId",
          "type": "uint256"
        },
        {
          "internalType": "uint256",
          "name": "newPrice",
          "type": "uint256"
        }
      ],
      "name": "updateEventPrice",
      "outputs": [],
      "stateMutability": "nonpayable",
      "type": "function"
    }
  ],
  "bytecode": "0x60806040523480156200001157600080fd5b506040516200227538038062002275833981016040819052620000349162000087565b60018055600280546001600160a01b039384166001600160a01b03199182161790915560038054929093169116179055620000bf565b80516001600160a01b03811681146200008257600080fd5b919050565b600080604083850312156200009b57600080fd5b620000a6836200006a565b9150620000b6602084016200006a565b90509250929050565b6121a680620000cf6000396000f3fe60806040526004361061014b5760003560e01c80636d1884e0116100b6578063c13c85071161006f578063c13c850714610435578063d547741f14610455578063df1383a214610475578063e4aa47e3146104a5578063f73fd76a146104c5578063ff9f5970146104d857600080fd5b80636d1884e01461036b5780637084698c1461039857806381f90025146103ad57806391d14854146103e0578063a217fddf14610400578063b393391b1461041557600080fd5b806336568abe1161010857806336568abe146102855780633dcec13e146102a55780633f69babd146102d2578063427c9761146102f257806355c73485146103125780635f1cd1581461034b57600080fd5b806301ffc9a7146101505780630b7914301461018557806313007d55146101bc57806313be5e92146101f4578063248a9ca3146102335780632f2ff15d14610263575b600080fd5b34801561015c57600080fd5b5061017061016b366004611ac5565b610505565b60405190151581526020015b60405180910390f35b34801561019157600080fd5b506101a56101a0366004611af6565b61053c565b60405161017c9b9a99989796959493929190611b55565b3480156101c857600080fd5b506002546101dc906001600160a01b031681565b6040516001600160a01b03909116815260200161017c565b34801561020057600080fd5b5061022561020f366004611af6565b6000908152600460208190526040909120015490565b60405190815260200161017c565b34801561023f57600080fd5b5061022561024e366004611af6565b60009081526020819052604090206001015490565b34801561026f57600080fd5b5061028361027e366004611be4565b610629565b005b34801561029157600080fd5b506102836102a0366004611be4565b610654565b3480156102b157600080fd5b506102c56102c0366004611af6565b61068c565b60405161017c9190611c10565b3480156102de57600080fd5b506102836102ed366004611af6565b61081f565b3480156102fe57600080fd5b5061028361030d366004611c38565b610a5c565b34801561031e57600080fd5b506101dc61032d366004611af6565b6000908152600460205260409020600101546001600160a01b031690565b34801561035757600080fd5b50610283610366366004611af6565b610cc7565b34801561037757600080fd5b5061038b610386366004611af6565b610f3a565b60405161017c9190611c5a565b3480156103a457600080fd5b50600654610225565b3480156103b957600080fd5b506101706103c8366004611af6565b60009081526004602052604090206009015460ff1690565b3480156103ec57600080fd5b506101706103fb366004611be4565b6110d1565b34801561040c57600080fd5b50610225600081565b34801561042157600080fd5b506003546101dc906001600160a01b031681565b34801561044157600080fd5b50610225610450366004611db0565b6110fa565b34801561046157600080fd5b50610283610470366004611be4565b6114ff565b34801561048157600080fd5b50610225610490366004611af6565b60009081526004602052604090206003015490565b3480156104b157600080fd5b506102256104c0366004611e15565b611524565b6102256104d3366004611e3f565b611555565b3480156104e457600080fd5b506104f86104f3366004611e86565b6118e8565b60405161017c9190611ea1565b60006001600160e01b03198216637965db0b60e01b148061053657506301ffc9a760e01b6001600160e01b03198316145b92915050565b60046020526000908152604090208054600182015460028301805492936001600160a01b039092169261056e90611ee5565b80601f016020809104026020016040519081016040528092919081815260200182805461059a90611ee5565b80156105e75780601f106105bc576101008083540402835291602001916105e7565b820191906000526020600020905b8154815290600101906020018083116105ca57829003601f168201915b50505050600383015460048401546005850154600686015460078701546008880154600990980154969794969395509193909260ff808216916101009004168b565b60008281526020819052604090206001015461064481611954565b61064e8383611961565b50505050565b6001600160a01b038116331461067d5760405163334bd91960e11b815260040160405180910390fd5b61068782826119f3565b505050565b60008181526004602090815260408083208151610160810183528154815260018201546001600160a01b031693810193909352600281018054859493840191906106d590611ee5565b80601f016020809104026020016040519081016040528092919081815260200182805461070190611ee5565b801561074e5780601f106107235761010080835404028352916020019161074e565b820191906000526020600020905b81548152906001019060200180831161073157829003601f168201915b505050918352505060038201546020820152600482015460408201526005820154606082015260068201546080820152600782015460a0820152600882015460c082015260099091015460ff808216151560e084015261010091829004161515910152610140810151909150156107c85750600392915050565b8061012001516107db5750600092915050565b8060c001514210156107f05750600192915050565b8060c00151421015801561080857508060e001514211155b156108165750600292915050565b50600492915050565b60008181526004602052604090206001015481906001600160a01b0316331480610920575060025460408051631d6c8e3f60e21b815290516001600160a01b03909216916391d148549183916375b238fc916004808201926020929091908290030181865afa158015610896573d6000803e3d6000fd5b505050506040513d601f19601f820116820180604052508101906108ba9190611f1f565b6040516001600160e01b031960e084901b1681526004810191909152336024820152604401602060405180830381865afa1580156108fc573d6000803e3d6000fd5b505050506040513d601f19601f820116820180604052508101906109209190611f38565b6109715760405162461bcd60e51b815260206004820152601c60248201527f4576656e744d616e616765723a206e6f7420617574686f72697a65640000000060448201526064015b60405180910390fd5b600082815260046020526040902054821461099e5760405162461bcd60e51b815260040161096890611f5a565b600082815260046020526040902060090154610100900460ff1615610a135760405162461bcd60e51b815260206004820152602560248201527f4576656e744d616e616765723a206576656e7420616c72656164792063616e63604482015264195b1b195960da1b6064820152608401610968565b600082815260046020526040808220600901805461ff0019166101001790555183917fdc3cb569b066460f4a22dffa05317bdcce5d3826382ed49a21f13e5fa2063d3991a25050565b60008281526004602052604090206001015482906001600160a01b0316331480610b5d575060025460408051631d6c8e3f60e21b815290516001600160a01b03909216916391d148549183916375b238fc916004808201926020929091908290030181865afa158015610ad3573d6000803e3d6000fd5b505050506040513d601f19601f82011682018060405250810190610af79190611f1f565b6040516001600160e01b031960e084901b1681526004810191909152336024820152604401602060405180830381865afa158015610b39573d6000803e3d6000fd5b505050506040513d601f19601f82011682018060405250810190610b5d9190611f38565b610ba95760405162461bcd60e51b815260206004820152601c60248201527f4576656e744d616e616765723a206e6f7420617574686f72697a6564000000006044820152606401610968565b6000838152600460205260409020548314610bd65760405162461bcd60e51b815260040161096890611f5a565b60008211610bf65760405162461bcd60e51b815260040161096890611f9c565b60008381526004602052604090206005015415610c725760405162461bcd60e51b815260206004820152603460248201527f4576656e744d616e616765723a2063616e6e6f74206368616e67652070726963604482015273194818599d195c881d1a58dad95d1cc81cdbdb1960621b6064820152608401610968565b600083815260046020526040908190206003018390555183907ff47c976a3d15423f161b6a4c5fb9f1c097bbd31e6c6343a8ff9648507ab8b4ba90610cba9085815260200190565b60405180910390a2505050565b60025460408051631d6c8e3f60e21b815290516001600160a01b03909216916391d148549183916375b238fc916004808201926020929091908290030181865afa158015610d19573d6000803e3d6000fd5b505050506040513d601f19601f82011682018060405250810190610d3d9190611f1f565b6040516001600160e01b031960e084901b1681526004810191909152336024820152604401602060405180830381865afa158015610d7f573d6000803e3d6000fd5b505050506040513d601f19601f82011682018060405250810190610da39190611f38565b610def5760405162461bcd60e51b815260206004820152601b60248201527f4576656e744d616e616765723a206d7573742062652061646d696e00000000006044820152606401610968565b6000818152600460205260409020548114610e1c5760405162461bcd60e51b815260040161096890611f5a565b60008181526004602052604090206009015460ff1615610e8a5760405162461bcd60e51b8152602060048201526024808201527f4576656e744d616e616765723a206576656e7420616c726561647920617070726044820152631bdd995960e21b6064820152608401610968565b600081815260046020526040902060090154610100900460ff1615610ef15760405162461bcd60e51b815260206004820181905260248201527f4576656e744d616e616765723a206576656e742069732063616e63656c6c65646044820152606401610968565b600081815260046020526040808220600901805460ff1916600117905551339183917f2a87097bcc5b3e711305670da8a3ce74a1b6e43f1a85b8310a23cf8ccc1956179190a350565b610fa46040518061016001604052806000815260200160006001600160a01b03168152602001606081526020016000815260200160008152602001600081526020016000815260200160008152602001600081526020016000151581526020016000151581525090565b6000828152600460209081526040918290208251610160810184528154815260018201546001600160a01b0316928101929092526002810180549293919291840191610fef90611ee5565b80601f016020809104026020016040519081016040528092919081815260200182805461101b90611ee5565b80156110685780601f1061103d57610100808354040283529160200191611068565b820191906000526020600020905b81548152906001019060200180831161104b57829003601f168201915b505050918352505060038201546020820152600482015460408201526005820154606082015260068201546080820152600782015460a0820152600882015460c082015260099091015460ff808216151560e08401526101009182900416151591015292915050565b6000918252602082815260408084206001600160a01b0393909316845291905290205460ff1690565b60025460408051637909cb5960e01b815290516000926001600160a01b0316916391d14854918391637909cb599160048083019260209291908290030181865afa15801561114c573d6000803e3d6000fd5b505050506040513d601f19601f820116820180604052508101906111709190611f1f565b6040516001600160e01b031960e084901b1681526004810191909152336024820152604401602060405180830381865afa1580156111b2573d6000803e3d6000fd5b505050506040513d601f19601f820116820180604052508101906111d69190611f38565b6112225760405162461bcd60e51b815260206004820152601f60248201527f4576656e744d616e616765723a206d757374206265206f7267616e697a6572006044820152606401610968565b600086116112425760405162461bcd60e51b815260040161096890611f9c565b600085116112aa5760405162461bcd60e51b815260206004820152602f60248201527f4576656e744d616e616765723a206d61785469636b657473206d75737420626560448201526e02067726561746572207468616e203608c1b6064820152608401610968565b8284106112f95760405162461bcd60e51b815260206004820181905260248201527f4576656e744d616e616765723a20696e76616c69642074696d652072616e67656044820152606401610968565b818311156113675760405162461bcd60e51b815260206004820152603560248201527f4576656e744d616e616765723a2073616c6520656e642074696d65206d757374604482015274206265206265666f7265206576656e74206461746560581b6064820152608401610968565b60068054908190600061137983611fe6565b909155505060408051610160810182528281523360208083019182528284018c8152606084018c9052608084018b9052600060a0850181905260c085018b905260e085018a905261010085018990526101208501819052610140850181905286815260049092529390208251815590516001820180546001600160a01b0319166001600160a01b039092169190911790559151909190600282019061141e908261205b565b50606082015160038201556080820151600482015560a082015160058083019190915560c0830151600683015560e08301516007830155610100808401516008840155610120840151600990930180546101409095015161ffff1990951693151561ff001916939093179315150292909217905533600081815260209283526040808220805460018101825590835293909120909201839055905182907f3e1e16dc53562886fa9ab2acde567c1067c24a0c4daad0e47ab75c7b194a90ed906114ec908c908c908c9061211b565b60405180910390a3979650505050505050565b60008281526020819052604090206001015461151a81611954565b61064e83836119f3565b6005602052816000526040600020818154811061154057600080fd5b90600052602060002001600091509150505481565b600061155f611a5e565b60008381526004602052604090208054841461158d5760405162461bcd60e51b815260040161096890611f5a565b600981015460ff166115e15760405162461bcd60e51b815260206004820181905260248201527f4576656e744d616e616765723a206576656e74206e6f7420617070726f7665646044820152606401610968565b6009810154610100900460ff161561163b5760405162461bcd60e51b815260206004820181905260248201527f4576656e744d616e616765723a206576656e742069732063616e63656c6c65646044820152606401610968565b80600601544210158015611653575080600701544211155b61169f5760405162461bcd60e51b815260206004820181905260248201527f4576656e744d616e616765723a206e6f7420696e2073616c6520706572696f646044820152606401610968565b80600401548160050154106116f65760405162461bcd60e51b815260206004820152601e60248201527f4576656e744d616e616765723a207469636b65747320736f6c64206f757400006044820152606401610968565b80600301543410156117555760405162461bcd60e51b815260206004820152602260248201527f4576656e744d616e616765723a20696e73756666696369656e74207061796d656044820152611b9d60f21b6064820152608401610968565b6003546040516301aa1ff560e11b81526000916001600160a01b0316906303543fea9061178a90339089908990600401612140565b6020604051808303816000875af11580156117a9573d6000803e3d6000fd5b505050506040513d601f19601f820116820180604052508101906117cd9190611f1f565b60058301805491925060006117e183611fe6565b909155505034156118935760018201546040516000916001600160a01b03169034908381818185875af1925050503d806000811461183b576040519150601f19603f3d011682016040523d82523d6000602084013e611840565b606091505b50509050806118915760405162461bcd60e51b815260206004820152601c60248201527f4576656e744d616e616765723a207061796d656e74206661696c6564000000006044820152606401610968565b505b336001600160a01b031681867ff7121729d150e84f8bda295716f2537b334563fa3d38ecae5b8113346aef8a8285600301546040516118d491815260200190565b60405180910390a491505061053660018055565b6001600160a01b03811660009081526005602090815260409182902080548351818402810184019094528084526060939283018282801561194857602002820191906000526020600020905b815481526020019060010190808311611934575b50505050509050919050565b61195e8133611a88565b50565b600061196d83836110d1565b6119eb576000838152602081815260408083206001600160a01b03861684529091529020805460ff191660011790556119a33390565b6001600160a01b0316826001600160a01b0316847f2f8788117e7eff1d82e926ec794901d17c78024a50270940304540a733656f0d60405160405180910390a4506001610536565b506000610536565b60006119ff83836110d1565b156119eb576000838152602081815260408083206001600160a01b0386168085529252808320805460ff1916905551339286917ff6391f5c32d9c69d2a47ea670b442974b53935d1edc7fd64eb21e047a839171b9190a4506001610536565b600260015403611a8157604051633ee5aeb560e01b815260040160405180910390fd5b6002600155565b611a9282826110d1565b611ac15760405163e2517d3f60e01b81526001600160a01b038216600482015260248101839052604401610968565b5050565b600060208284031215611ad757600080fd5b81356001600160e01b031981168114611aef57600080fd5b9392505050565b600060208284031215611b0857600080fd5b5035919050565b6000815180845260005b81811015611b3557602081850181015186830182015201611b19565b506000602082860101526020601f19601f83011685010191505092915050565b8b81526001600160a01b038b16602082015261016060408201819052600090611b808382018d611b0f565b606084019b909b525050608081019790975260a087019590955260c086019390935260e085019190915261010084015215156101208301521515610140909101529392505050565b80356001600160a01b0381168114611bdf57600080fd5b919050565b60008060408385031215611bf757600080fd5b82359150611c0760208401611bc8565b90509250929050565b6020810160058310611c3257634e487b7160e01b600052602160045260246000fd5b91905290565b60008060408385031215611c4b57600080fd5b50508035926020909101359150565b602081528151602082015260006020830151611c8160408401826001600160a01b03169052565b506040830151610160806060850152611c9e610180850183611b0f565b915060608501516080850152608085015160a085015260a085015160c085015260c085015160e085015260e0850151610100818187015280870151915050610120818187015280870151915050610140611cfb8187018315159052565b90950151151593019290925250919050565b634e487b7160e01b600052604160045260246000fd5b600082601f830112611d3457600080fd5b813567ffffffffffffffff80821115611d4f57611d4f611d0d565b604051601f8301601f19908116603f01168101908282118183101715611d7757611d77611d0d565b81604052838152866020858801011115611d9057600080fd5b836020870160208301376000602085830101528094505050505092915050565b60008060008060008060c08789031215611dc957600080fd5b863567ffffffffffffffff811115611de057600080fd5b611dec89828a01611d23565b9960208901359950604089013598606081013598506080810135975060a0013595509350505050565b60008060408385031215611e2857600080fd5b611e3183611bc8565b946020939093013593505050565b60008060408385031215611e5257600080fd5b82359150602083013567ffffffffffffffff811115611e7057600080fd5b611e7c85828601611d23565b9150509250929050565b600060208284031215611e9857600080fd5b611aef82611bc8565b6020808252825182820181905260009190848201906040850190845b81811015611ed957835183529284019291840191600101611ebd565b50909695505050505050565b600181811c90821680611ef957607f821691505b602082108103611f1957634e487b7160e01b600052602260045260246000fd5b50919050565b600060208284031215611f3157600080fd5b5051919050565b600060208284031215611f4a57600080fd5b81518015158114611aef57600080fd5b60208082526022908201527f4576656e744d616e616765723a206576656e7420646f6573206e6f74206578696040820152611cdd60f21b606082015260800190565b6020808252602a908201527f4576656e744d616e616765723a207072696365206d75737420626520677265616040820152690746572207468616e20360b41b606082015260800190565b60006001820161200657634e487b7160e01b600052601160045260246000fd5b5060010190565b601f82111561068757600081815260208120601f850160051c810160208610156120345750805b601f850160051c820191505b8181101561205357828155600101612040565b505050505050565b815167ffffffffffffffff81111561207557612075611d0d565b612089816120838454611ee5565b8461200d565b602080601f8311600181146120be57600084156120a65750858301515b600019600386901b1c1916600185901b178555612053565b600085815260208120601f198616915b828110156120ed578886015182559484019460019091019084016120ce565b508582101561210b5787850151600019600388901b60f8161c191681555b5050505050600190811b01905550565b60608152600061212e6060830186611b0f565b60208301949094525060400152919050565b60018060a01b03841681528260208201526060604082015260006121676060830184611b0f565b9594505050505056fea2646970667358221220f0df129c0d15b82626e2d4a15478a57bb9b9cd7e5268396c392c55ee71d12e3664736f6c63430008140033",
  "linkReferences": {},
  "deployedLinkReferences": {}
}