{
  "_format": "hh-sol-artifact-1",
  "contractName": "RefundManager",
  "sourceName": "contracts/RefundManager.sol",
  "abi": [
    {
      "inputs": [
        {
          "internalType": "address",
          "name": "_accessControl",
          "type": "address"
        },
        {
          "internalType": "address",
          "name": "_ticketNFT",
          "type": "address"
        },
        {
          "internalType": "address",
          "name": "_eventManager",
          "type": "address"
        }
      ],
      "stateMutability": "nonpayable",
      "type": "constructor"
    },
    {
      "inputs": [],
      "name": "AccessControlBadConfirmation",
      "type": "error"
    },
    {
      "inputs": [
        {
          "internalType": "address",
          "name": "account",
          "type": "address"
        },
        {
          "internalType": "bytes32",
          "name": "neededRole",
          "type": "bytes32"
        }
      ],
      "name": "AccessControlUnauthorizedAccount",
      "type": "error"
    },
    {
      "inputs": [],
      "name": "ReentrancyGuardReentrantCall",
      "type": "error"
    },
    {
      "anonymous": false,
      "inputs": [
        {
          "indexed": false,
          "internalType": "uint256",
          "name": "newDeadline",
          "type": "uint256"
        }
      ],
      "name": "RefundDeadlineUpdated",
      "type": "event"
    },
    {
      "anonymous": false,
      "inputs": [
        {
          "indexed": false,
          "internalType": "uint256",
          "name": "newFee",
          "type": "uint256"
        }
      ],
      "name": "RefundFeeUpdated",
      "type": "event"
    },
    {
      "anonymous": false,
      "inputs": [
        {
          "indexed": true,
          "internalType": "uint256",
          "name": "tokenId",
          "type": "uint256"
        },
        {
          "indexed": true,
          "internalType": "address",
          "name": "requester",
          "type": "address"
        },
        {
          "indexed": false,
          "internalType": "uint256",
          "name": "refundAmount",
          "type": "uint256"
        },
        {
          "indexed": false,
          "internalType": "uint256",
          "name": "fee",
          "type": "uint256"
        }
      ],
      "name": "RefundProcessed",
      "type": "event"
    },
    {
      "anonymous": false,
      "inputs": [
        {
          "indexed": true,
          "internalType": "uint256",
          "name": "tokenId",
          "type": "uint256"
        },
        {
          "indexed": true,
          "internalType": "address",
          "name": "requester",
          "type": "address"
        },
        {
          "indexed": false,
          "internalType": "uint256",
          "name": "refundAmount",
          "type": "uint256"
        }
      ],
      "name": "RefundRequested",
      "type": "event"
    },
    {
      "anonymous": false,
      "inputs": [
        {
          "indexed": true,
          "internalType": "bytes32",
          "name": "role",
          "type": "bytes32"
        },
        {
          "indexed": true,
          "internalType": "bytes32",
          "name": "previousAdminRole",
          "type": "bytes32"
        },
        {
          "indexed": true,
          "internalType": "bytes32",
          "name": "newAdminRole",
          "type": "bytes32"
        }
      ],
      "name": "RoleAdminChanged",
      "type": "event"
    },
    {
      "anonymous": false,
      "inputs": [
        {
          "indexed": true,
          "internalType": "bytes32",
          "name": "role",
          "type": "bytes32"
        },
        {
          "indexed": true,
          "internalType": "address",
          "name": "account",
          "type": "address"
        },
        {
          "indexed": true,
          "internalType": "address",
          "name": "sender",
          "type": "address"
        }
      ],
      "name": "RoleGranted",
      "type": "event"
    },
    {
      "anonymous": false,
      "inputs": [
        {
          "indexed": true,
          "internalType": "bytes32",
          "name": "role",
          "type": "bytes32"
        },
        {
          "indexed": true,
          "internalType": "address",
          "name": "account",
          "type": "address"
        },
        {
          "indexed": true,
          "internalType": "address",
          "name": "sender",
          "type": "address"
        }
      ],
      "name": "RoleRevoked",
      "type": "event"
    },
    {
      "inputs": [],
      "name": "DEFAULT_ADMIN_ROLE",
      "outputs": [
        {
          "internalType": "bytes32",
          "name": "",
          "type": "bytes32"
        }
      ],
      "stateMutability": "view",
      "type": "function"
    },
    {
      "inputs": [],
      "name": "FEE_DENOMINATOR",
      "outputs": [
        {
          "internalType": "uint256",
          "name": "",
          "type": "uint256"
        }
      ],
      "stateMutability": "view",
      "type": "function"
    },
    {
      "inputs": [],
      "name": "accessControl",
      "outputs": [
        {
          "internalType": "contract TicketAccessControl",
          "name": "",
          "type": "address"
        }
      ],
      "stateMutability": "view",
      "type": "function"
    },
    {
      "inputs": [
        {
          "internalType": "uint256",
          "name": "tokenId",
          "type": "uint256"
        }
      ],
      "name": "emergencyRefund",
      "outputs": [],
      "stateMutability": "nonpayable",
      "type": "function"
    },
    {
      "inputs": [],
      "name": "eventManager",
      "outputs": [
        {
          "internalType": "contract EventManager",
          "name": "",
          "type": "address"
        }
      ],
      "stateMutability": "view",
      "type": "function"
    },
    {
      "inputs": [
        {
          "internalType": "uint256",
          "name": "tokenId",
          "type": "uint256"
        }
      ],
      "name": "getRefundRequest",
      "outputs": [
        {
          "components": [
            {
              "internalType": "uint256",
              "name": "tokenId",
              "type": "uint256"
            },
            {
              "internalType": "address",
              "name": "requester",
              "type": "address"
            },
            {
              "internalType": "uint256",
              "name": "refundAmount",
              "type": "uint256"
            },
            {
              "internalType": "bool",
              "name": "processed",
              "type": "bool"
            },
            {
              "internalType": "uint256",
              "name": "requestedAt",
              "type": "uint256"
            },
            {
              "internalType": "uint256",
              "name": "processedAt",
              "type": "uint256"
            }
          ],
          "internalType": "struct RefundManager.RefundRequest",
          "name": "",
          "type": "tuple"
        }
      ],
      "stateMutability": "view",
      "type": "function"
    },
    {
      "inputs": [
        {
          "internalType": "bytes32",
          "name": "role",
          "type": "bytes32"
        }
      ],
      "name": "getRoleAdmin",
      "outputs": [
        {
          "internalType": "bytes32",
          "name": "",
          "type": "bytes32"
        }
      ],
      "stateMutability": "view",
      "type": "function"
    },
    {
      "inputs": [
        {
          "internalType": "bytes32",
          "name": "role",
          "type": "bytes32"
        },
        {
          "internalType": "address",
          "name": "account",
          "type": "address"
        }
      ],
      "name": "grantRole",
      "outputs": [],
      "stateMutability": "nonpayable",
      "type": "function"
    },
    {
      "inputs": [
        {
          "internalType": "bytes32",
          "name": "role",
          "type": "bytes32"
        },
        {
          "internalType": "address",
          "name": "account",
          "type": "address"
        }
      ],
      "name": "hasRole",
      "outputs": [
        {
          "internalType": "bool",
          "name": "",
          "type": "bool"
        }
      ],
      "stateMutability": "view",
      "type": "function"
    },
    {
      "inputs": [
        {
          "internalType": "uint256",
          "name": "tokenId",
          "type": "uint256"
        }
      ],
      "name": "isRefundable",
      "outputs": [
        {
          "internalType": "bool",
          "name": "",
          "type": "bool"
        }
      ],
      "stateMutability": "view",
      "type": "function"
    },
    {
      "inputs": [
        {
          "internalType": "uint256",
          "name": "tokenId",
          "type": "uint256"
        }
      ],
      "name": "processRefund",
      "outputs": [],
      "stateMutability": "nonpayable",
      "type": "function"
    },
    {
      "inputs": [],
      "name": "refundDeadlineDays",
      "outputs": [
        {
          "internalType": "uint256",
          "name": "",
          "type": "uint256"
        }
      ],
      "stateMutability": "view",
      "type": "function"
    },
    {
      "inputs": [],
      "name": "refundFee",
      "outputs": [
        {
          "internalType": "uint256",
          "name": "",
          "type": "uint256"
        }
      ],
      "stateMutability": "view",
      "type": "function"
    },
    {
      "inputs": [
        {
          "internalType": "uint256",
          "name": "",
          "type": "uint256"
        }
      ],
      "name": "refundRequests",
      "outputs": [
        {
          "internalType": "uint256",
          "name": "tokenId",
          "type": "uint256"
        },
        {
          "internalType": "address",
          "name": "requester",
          "type": "address"
        },
        {
          "internalType": "uint256",
          "name": "refundAmount",
          "type": "uint256"
        },
        {
          "internalType": "bool",
          "name": "processed",
          "type": "bool"
        },
        {
          "internalType": "uint256",
          "name": "requestedAt",
          "type": "uint256"
        },
        {
          "internalType": "uint256",
          "name": "processedAt",
          "type": "uint256"
        }
      ],
      "stateMutability": "view",
      "type": "function"
    },
    {
      "inputs": [
        {
          "internalType": "bytes32",
          "name": "role",
          "type": "bytes32"
        },
        {
          "internalType": "address",
          "name": "callerConfirmation",
          "type": "address"
        }
      ],
      "name": "renounceRole",
      "outputs": [],
      "stateMutability": "nonpayable",
      "type": "function"
    },
    {
      "inputs": [
        {
          "internalType": "uint256",
          "name": "tokenId",
          "type": "uint256"
        }
      ],
      "name": "requestRefund",
      "outputs": [],
      "stateMutability": "nonpayable",
      "type": "function"
    },
    {
      "inputs": [
        {
          "internalType": "bytes32",
          "name": "role",
          "type": "bytes32"
        },
        {
          "internalType": "address",
          "name": "account",
          "type": "address"
        }
      ],
      "name": "revokeRole",
      "outputs": [],
      "stateMutability": "nonpayable",
      "type": "function"
    },
    {
      "inputs": [
        {
          "internalType": "uint256",
          "name": "newDeadline",
          "type": "uint256"
        }
      ],
      "name": "setRefundDeadline",
      "outputs": [],
      "stateMutability": "nonpayable",
      "type": "function"
    },
    {
      "inputs": [
        {
          "internalType": "uint256",
          "name": "newFee",
          "type": "uint256"
        }
      ],
      "name": "setRefundFee",
      "outputs": [],
      "stateMutability": "nonpayable",
      "type": "function"
    },
    {
      "inputs": [
        {
          "internalType": "bytes4",
          "name": "interfaceId",
          "type": "bytes4"
        }
      ],
      "name": "supportsInterface",
      "outputs": [
        {
          "internalType": "bool",
          "name": "",
          "type": "bool"
        }
      ],
      "stateMutability": "view",
      "type": "function"
    },
    {
      "inputs": [],
      "name": "ticketNFT",
      "outputs": [
        {
          "internalType": "contract TicketNFT",
          "name": "",
          "type": "address"
        }
      ],
      "stateMutability": "view",
      "type": "function"
    },
    {
      "stateMutability": "payable",
      "type": "receive"
    }
  ],
  "bytecode": "0x608060405262093a8060065560006007553480156200001d57600080fd5b5060405162001ec538038062001ec58339810160408190526200004091620000a4565b60018055600280546001600160a01b039485166001600160a01b031991821617909155600380549385169382169390931790925560048054919093169116179055620000ee565b80516001600160a01b03811681146200009f57600080fd5b919050565b600080600060608486031215620000ba57600080fd5b620000c58462000087565b9250620000d56020850162000087565b9150620000e56040850162000087565b90509250925092565b611dc780620000fe6000396000f3fe60806040526004361061012e5760003560e01c80637d974ade116100ab578063a4b2409e1161006f578063a4b2409e14610411578063b393391b14610431578063cce6ef4414610451578063d547741f14610471578063d73792a914610491578063dac87ca4146104a757600080fd5b80637d974ade1461030f5780638fd611be146103a657806390fe6ddb146103c657806391d14854146103dc578063a217fddf146103fc57600080fd5b806331844f14116100f257806331844f141461027957806336568abe1461029957806336fd711e146102b95780636e909575146102d957806370e5deb9146102ef57600080fd5b806301ffc9a71461013a5780630abfbb751461016f57806313007d55146101e1578063248a9ca3146102195780632f2ff15d1461025757600080fd5b3661013557005b600080fd5b34801561014657600080fd5b5061015a6101553660046119cc565b6104c7565b60405190151581526020015b60405180910390f35b34801561017b57600080fd5b5061018f61018a3660046119fd565b6104fe565b6040516101669190815181526020808301516001600160a01b031690820152604080830151908201526060808301511515908201526080808301519082015260a0918201519181019190915260c00190565b3480156101ed57600080fd5b50600254610201906001600160a01b031681565b6040516001600160a01b039091168152602001610166565b34801561022557600080fd5b506102496102343660046119fd565b60009081526020819052604090206001015490565b604051908152602001610166565b34801561026357600080fd5b50610277610272366004611a2b565b6105a6565b005b34801561028557600080fd5b506102776102943660046119fd565b6105d1565b3480156102a557600080fd5b506102776102b4366004611a2b565b61070e565b3480156102c557600080fd5b506102776102d43660046119fd565b610746565b3480156102e557600080fd5b5061024960065481565b3480156102fb57600080fd5b5061027761030a3660046119fd565b6108c4565b34801561031b57600080fd5b5061036f61032a3660046119fd565b600560208190526000918252604090912080546001820154600283015460038401546004850154949095015492946001600160a01b0390921693909260ff9092169186565b604080519687526001600160a01b0390951660208701529385019290925215156060840152608083015260a082015260c001610166565b3480156103b257600080fd5b50600454610201906001600160a01b031681565b3480156103d257600080fd5b5061024960075481565b3480156103e857600080fd5b5061015a6103f7366004611a2b565b610d85565b34801561040857600080fd5b50610249600081565b34801561041d57600080fd5b5061027761042c3660046119fd565b610dae565b34801561043d57600080fd5b50600354610201906001600160a01b031681565b34801561045d57600080fd5b5061015a61046c3660046119fd565b6111a6565b34801561047d57600080fd5b5061027761048c366004611a2b565b6112d2565b34801561049d57600080fd5b5061024961271081565b3480156104b357600080fd5b506102776104c23660046119fd565b6112f7565b60006001600160e01b03198216637965db0b60e01b14806104f857506301ffc9a760e01b6001600160e01b03198316145b92915050565b6105426040518060c001604052806000815260200160006001600160a01b031681526020016000815260200160001515815260200160008152602001600081525090565b50600090815260056020818152604092839020835160c0810185528154815260018201546001600160a01b031692810192909252600281015493820193909352600383015460ff16151560608201526004830154608082015291015460a082015290565b6000828152602081905260409020600101546105c18161185e565b6105cb8383611868565b50505050565b60025460408051631d6c8e3f60e21b815290516001600160a01b03909216916391d148549183916375b238fc916004808201926020929091908290030181865afa158015610623573d6000803e3d6000fd5b505050506040513d601f19601f820116820180604052508101906106479190611a5b565b6040516001600160e01b031960e084901b1681526004810191909152336024820152604401602060405180830381865afa158015610689573d6000803e3d6000fd5b505050506040513d601f19601f820116820180604052508101906106ad9190611a89565b6106d25760405162461bcd60e51b81526004016106c990611aa4565b60405180910390fd5b60068190556040518181527f06eaf0902255ec30abd6b1f044261adf21637dc15bbf72170a49dd328bd278e3906020015b60405180910390a150565b6001600160a01b03811633146107375760405163334bd91960e11b815260040160405180910390fd5b61074182826118fa565b505050565b60025460408051631d6c8e3f60e21b815290516001600160a01b03909216916391d148549183916375b238fc916004808201926020929091908290030181865afa158015610798573d6000803e3d6000fd5b505050506040513d601f19601f820116820180604052508101906107bc9190611a5b565b6040516001600160e01b031960e084901b1681526004810191909152336024820152604401602060405180830381865afa1580156107fe573d6000803e3d6000fd5b505050506040513d601f19601f820116820180604052508101906108229190611a89565b61083e5760405162461bcd60e51b81526004016106c990611aa4565b612710811061088f5760405162461bcd60e51b815260206004820152601b60248201527f526566756e644d616e616765723a2066656520746f6f2068696768000000000060448201526064016106c9565b60078190556040518181527f01634ac4e9f09be1ef87b8d09e14926870261dcb9a0929d2d6460af6e4c5ad1e90602001610703565b60025460408051631d6c8e3f60e21b815290516001600160a01b03909216916391d148549183916375b238fc916004808201926020929091908290030181865afa158015610916573d6000803e3d6000fd5b505050506040513d601f19601f8201168201806040525081019061093a9190611a5b565b6040516001600160e01b031960e084901b1681526004810191909152336024820152604401602060405180830381865afa15801561097c573d6000803e3d6000fd5b505050506040513d601f19601f820116820180604052508101906109a09190611a89565b6109bc5760405162461bcd60e51b81526004016106c990611aa4565b6109c4611965565b6003546040516331a9108f60e11b8152600481018390526000916001600160a01b031690636352211e90602401602060405180830381865afa158015610a0e573d6000803e3d6000fd5b505050506040513d601f19601f82011682018060405250810190610a329190611ae6565b6001600160a01b031603610a945760405162461bcd60e51b8152602060048201526024808201527f526566756e644d616e616765723a207469636b657420646f6573206e6f7420656044820152631e1a5cdd60e21b60648201526084016106c9565b60035460405163cc9d707160e01b8152600481018390526000916001600160a01b03169063cc9d707190602401602060405180830381865afa158015610ade573d6000803e3d6000fd5b505050506040513d601f19601f82011682018060405250810190610b029190611a5b565b60048054604051630368c42760e51b81529182018390529192506000916001600160a01b031690636d1884e090602401600060405180830381865afa158015610b4f573d6000803e3d6000fd5b505050506040513d6000823e601f3d908101601f19168201604052610b779190810190611bf9565b9050806101400151610bd65760405162461bcd60e51b815260206004820152602260248201527f526566756e644d616e616765723a206576656e74206e6f742063616e63656c6c604482015261195960f21b60648201526084016106c9565b606081015160035460405163a476b73d60e01b8152600481018690526001600160a01b039091169063a476b73d90602401600060405180830381600087803b158015610c2157600080fd5b505af1158015610c35573d6000803e3d6000fd5b50506003546040516331a9108f60e11b815260048101889052600093506001600160a01b039091169150636352211e90602401602060405180830381865afa158015610c85573d6000803e3d6000fd5b505050506040513d601f19601f82011682018060405250810190610ca99190611ae6565b90506001600160a01b03811615610d2f576000816001600160a01b03168360405160006040518083038185875af1925050503d8060008114610d07576040519150601f19603f3d011682016040523d82523d6000602084013e610d0c565b606091505b5050905080610d2d5760405162461bcd60e51b81526004016106c990611ceb565b505b60408051838152600060208201526001600160a01b0383169187917fd0db0e7eda41bb1bea0e3cefcb1e61a85c4224eb3946df6220ba4a29f7d5462a910160405180910390a350505050610d8260018055565b50565b6000918252602082815260408084206001600160a01b0393909316845291905290205460ff1690565b610db6611965565b6003546040516331a9108f60e11b81526004810183905233916001600160a01b031690636352211e90602401602060405180830381865afa158015610dff573d6000803e3d6000fd5b505050506040513d601f19601f82011682018060405250810190610e239190611ae6565b6001600160a01b031614610e795760405162461bcd60e51b815260206004820152601f60248201527f526566756e644d616e616765723a206e6f74207469636b6574206f776e65720060448201526064016106c9565b60008181526005602052604090206003015460ff1615610eeb5760405162461bcd60e51b815260206004820152602760248201527f526566756e644d616e616765723a20726566756e6420616c72656164792070726044820152661bd8d95cdcd95960ca1b60648201526084016106c9565b60035460405163cc9d707160e01b8152600481018390526000916001600160a01b03169063cc9d707190602401602060405180830381865afa158015610f35573d6000803e3d6000fd5b505050506040513d601f19601f82011682018060405250810190610f599190611a5b565b60048054604051630368c42760e51b81529182018390529192506000916001600160a01b031690636d1884e090602401600060405180830381865afa158015610fa6573d6000803e3d6000fd5b505050506040513d6000823e601f3d908101601f19168201604052610fce9190810190611bf9565b9050600654816101000151610fe39190611d45565b4211156110405760405162461bcd60e51b815260206004820152602560248201527f526566756e644d616e616765723a20726566756e6420646561646c696e652070604482015264185cdcd95960da1b60648201526084016106c9565b8061014001511561109d5760405162461bcd60e51b815260206004820152602160248201527f526566756e644d616e616765723a206576656e742069732063616e63656c6c656044820152601960fa1b60648201526084016106c9565b6060810151600754156110d7576000612710600754836110bd9190611d58565b6110c79190611d6f565b90506110d38183611d45565b9150505b6040805160c081018252858152336020808301828152838501868152600060608601818152426080880190815260a088018381528d84526005808852938a90209851895594516001890180546001600160a01b0319166001600160a01b03909216919091179055925160028801555160038701805460ff1916911515919091179055905160048601559051930192909255915183815286917f6706020a65600b3496005cfd282dbbd692a827197e34c20e4a0fc2fa21d3eff2910160405180910390a3505050610d8260018055565b60035460405163cc9d707160e01b81526004810183905260009182916001600160a01b039091169063cc9d707190602401602060405180830381865afa1580156111f4573d6000803e3d6000fd5b505050506040513d601f19601f820116820180604052508101906112189190611a5b565b60048054604051630368c42760e51b81529182018390529192506000916001600160a01b031690636d1884e090602401600060405180830381865afa158015611265573d6000803e3d6000fd5b505050506040513d6000823e601f3d908101601f1916820160405261128d9190810190611bf9565b9050806101400151156112a4575060019392505050565b6006548161010001516112b79190611d45565b4211156112c8575060009392505050565b5060019392505050565b6000828152602081905260409020600101546112ed8161185e565b6105cb83836118fa565b60035460405163cc9d707160e01b8152600481018390526001600160a01b039091169063cc9d707190602401602060405180830381865afa158015611340573d6000803e3d6000fd5b505050506040513d601f19601f820116820180604052508101906113649190611a5b565b60048054604051630368c42760e51b81529182018390526000916001600160a01b0390911690636d1884e090602401600060405180830381865afa1580156113b0573d6000803e3d6000fd5b505050506040513d6000823e601f3d908101601f191682016040526113d89190810190611bf9565b60208101519091506001600160a01b03163314806114cd575060025460408051631d6c8e3f60e21b815290516001600160a01b03909216916391d148549183916375b238fc916004808201926020929091908290030181865afa158015611443573d6000803e3d6000fd5b505050506040513d601f19601f820116820180604052508101906114679190611a5b565b6040516001600160e01b031960e084901b1681526004810191909152336024820152604401602060405180830381865afa1580156114a9573d6000803e3d6000fd5b505050506040513d601f19601f820116820180604052508101906114cd9190611a89565b6115195760405162461bcd60e51b815260206004820152601d60248201527f526566756e644d616e616765723a206e6f7420617574686f72697a656400000060448201526064016106c9565b611521611965565b600083815260056020526040902060018101546001600160a01b03166115955760405162461bcd60e51b815260206004820152602360248201527f526566756e644d616e616765723a20726566756e64206e6f74207265717565736044820152621d195960ea1b60648201526084016106c9565b600381015460ff16156115ea5760405162461bcd60e51b815260206004820181905260248201527f526566756e644d616e616765723a20616c72656164792070726f63657373656460448201526064016106c9565b60035460405163cc9d707160e01b8152600481018690526000916001600160a01b03169063cc9d707190602401602060405180830381865afa158015611634573d6000803e3d6000fd5b505050506040513d601f19601f820116820180604052508101906116589190611a5b565b60048054604051630368c42760e51b81529182018390529192506000916001600160a01b031690636d1884e090602401600060405180830381865afa1580156116a5573d6000803e3d6000fd5b505050506040513d6000823e601f3d908101601f191682016040526116cd9190810190611bf9565b6060810151600754919250906000901561170b57612710600754836116f29190611d58565b6116fc9190611d6f565b90506117088183611d45565b91505b6003858101805460ff19166001179055426005870155600286018390555460405163a476b73d60e01b8152600481018a90526001600160a01b039091169063a476b73d90602401600060405180830381600087803b15801561176c57600080fd5b505af1158015611780573d6000803e3d6000fd5b5050505060008211156118045760018501546040516000916001600160a01b03169084908381818185875af1925050503d80600081146117dc576040519150601f19603f3d011682016040523d82523d6000602084013e6117e1565b606091505b50509050806118025760405162461bcd60e51b81526004016106c990611ceb565b505b600185015460408051848152602081018490526001600160a01b03909216918a917fd0db0e7eda41bb1bea0e3cefcb1e61a85c4224eb3946df6220ba4a29f7d5462a910160405180910390a3505050505061074160018055565b610d82813361198f565b60006118748383610d85565b6118f2576000838152602081815260408083206001600160a01b03861684529091529020805460ff191660011790556118aa3390565b6001600160a01b0316826001600160a01b0316847f2f8788117e7eff1d82e926ec794901d17c78024a50270940304540a733656f0d60405160405180910390a45060016104f8565b5060006104f8565b60006119068383610d85565b156118f2576000838152602081815260408083206001600160a01b0386168085529252808320805460ff1916905551339286917ff6391f5c32d9c69d2a47ea670b442974b53935d1edc7fd64eb21e047a839171b9190a45060016104f8565b60026001540361198857604051633ee5aeb560e01b815260040160405180910390fd5b6002600155565b6119998282610d85565b6119c85760405163e2517d3f60e01b81526001600160a01b0382166004820152602481018390526044016106c9565b5050565b6000602082840312156119de57600080fd5b81356001600160e01b0319811681146119f657600080fd5b9392505050565b600060208284031215611a0f57600080fd5b5035919050565b6001600160a01b0381168114610d8257600080fd5b60008060408385031215611a3e57600080fd5b823591506020830135611a5081611a16565b809150509250929050565b600060208284031215611a6d57600080fd5b5051919050565b80518015158114611a8457600080fd5b919050565b600060208284031215611a9b57600080fd5b6119f682611a74565b6020808252601c908201527f526566756e644d616e616765723a206d7573742062652061646d696e00000000604082015260600190565b8051611a8481611a16565b600060208284031215611af857600080fd5b81516119f681611a16565b634e487b7160e01b600052604160045260246000fd5b604051610160810167ffffffffffffffff81118282101715611b3d57611b3d611b03565b60405290565b604051601f8201601f1916810167ffffffffffffffff81118282101715611b6c57611b6c611b03565b604052919050565b600082601f830112611b8557600080fd5b815167ffffffffffffffff811115611b9f57611b9f611b03565b6020611bb3601f8301601f19168201611b43565b8281528582848701011115611bc757600080fd5b60005b83811015611be5578581018301518282018401528201611bca565b506000928101909101919091529392505050565b600060208284031215611c0b57600080fd5b815167ffffffffffffffff80821115611c2357600080fd5b908301906101608286031215611c3857600080fd5b611c40611b19565b82518152611c5060208401611adb565b6020820152604083015182811115611c6757600080fd5b611c7387828601611b74565b604083015250606083015160608201526080830151608082015260a083015160a082015260c083015160c082015260e083015160e0820152610100915081830151828201526101209150611cc8828401611a74565b828201526101409150611cdc828401611a74565b91810191909152949350505050565b60208082526024908201527f526566756e644d616e616765723a20726566756e64207061796d656e742066616040820152631a5b195960e21b606082015260800190565b634e487b7160e01b600052601160045260246000fd5b818103818111156104f8576104f8611d2f565b80820281158282048414176104f8576104f8611d2f565b600082611d8c57634e487b7160e01b600052601260045260246000fd5b50049056fea264697066735822122041cb9dab5a333d628f660685ec20790f43b4f4cf098e22b0a997a0a8d4e37c9264736f6c63430008140033",
  "linkReferences": {},
  "deployedLinkReferences": {}
}