{
  "_format": "hh-sol-artifact-1",
  "contractName": "SmartWalletFactory",
  "sourceName": "contracts/SmartWalletFactory.sol",
  "abi": [
    {
      "inputs": [
        {
          "internalType": "address",
          "name": "_entryPoint",
          "type": "address"
        }
      ],
      "stateMutability": "nonpayable",
      "type": "constructor"
    },
    {
      "anonymous": false,
      "inputs": [
        {
          "indexed": true,
          "internalType": "address",
          "name": "owner",
          "type": "address"
        },
        {
          "indexed": true,
          "internalType": "address",
          "name": "wallet",
          "type": "address"
        }
      ],
      "name": "WalletCreated",
      "type": "event"
    },
    {
      "inputs": [
        {
          "internalType": "address",
          "name": "owner",
          "type": "address"
        },
        {
          "internalType": "uint256",
          "name": "salt",
          "type": "uint256"
        }
      ],
      "name": "createWallet",
      "outputs": [
        {
          "internalType": "address",
          "name": "walletAddress",
          "type": "address"
        }
      ],
      "stateMutability": "nonpayable",
      "type": "function"
    },
    {
      "inputs": [],
      "name": "entryPoint",
      "outputs": [
        {
          "internalType": "address",
          "name": "",
          "type": "address"
        }
      ],
      "stateMutability": "view",
      "type": "function"
    },
    {
      "inputs": [
        {
          "internalType": "address",
          "name": "owner",
          "type": "address"
        },
        {
          "internalType": "uint256",
          "name": "salt",
          "type": "uint256"
        }
      ],
      "name": "getAddress",
      "outputs": [
        {
          "internalType": "address",
          "name": "walletAddress",
          "type": "address"
        }
      ],
      "stateMutability": "view",
      "type": "function"
    },
    {
      "inputs": [
        {
          "internalType": "address",
          "name": "owner",
          "type": "address"
        }
      ],
      "name": "getWallet",
      "outputs": [
        {
          "internalType": "address",
          "name": "walletAddress",
          "type": "address"
        }
      ],
      "stateMutability": "view",
      "type": "function"
    },
    {
      "inputs": [],
      "name": "walletImplementation",
      "outputs": [
        {
          "internalType": "address",
          "name": "",
          "type": "address"
        }
      ],
      "stateMutability": "view",
      "type": "function"
    },
    {
      "inputs": [
        {
          "internalType": "address",
          "name": "",
          "type": "address"
        }
      ],
      "name": "wallets",
      "outputs": [
        {
          "internalType": "address",
          "name": "",
          "type": "address"
        }
      ],
      "stateMutability": "view",
      "type": "function"
    }
  ],
  "bytecode": "0x60c060405234801561001057600080fd5b50604051611c81380380611c8183398101604081905261002f9161009b565b6001600160a01b03811660a052604051600090829061004d9061008e565b6001600160a01b039091168152602001604051809103906000f080158015610079573d6000803e3d6000fd5b506001600160a01b0316608052506100cb9050565b6111b280610acf83390190565b6000602082840312156100ad57600080fd5b81516001600160a01b03811681146100c457600080fd5b9392505050565b60805160a0516109d26100fd600039600061011701526000818160b401528181610185015261033001526109d26000f3fe608060405234801561001057600080fd5b50600436106100625760003560e01c806304d0a647146100675780638117abc1146100af57806389b08f11146100d65780638cb84e18146100ff578063b0d691fe14610112578063f247d21714610139575b600080fd5b6100936100753660046104b2565b6001600160a01b039081166000908152602081905260409020541690565b6040516001600160a01b03909116815260200160405180910390f35b6100937f000000000000000000000000000000000000000000000000000000000000000081565b6100936100e43660046104b2565b6000602081905290815260409020546001600160a01b031681565b61009361010d3660046104d4565b61014c565b6100937f000000000000000000000000000000000000000000000000000000000000000081565b6100936101473660046104d4565b61026d565b6000806040518060200161015f90610489565b601f1982820381018352601f9091011660408190526001600160a01b03861660248201527f00000000000000000000000000000000000000000000000000000000000000009060440160408051601f19818403018152918152602080830180516001600160e01b031663189acdbd60e31b17905290516101e193929101610522565b60408051601f19818403018152908290526101ff9291602001610564565b60408051808303601f1901815282825280516020918201206001600160f81b0319828501523060601b6bffffffffffffffffffffffff191660218501526035840196909652605580840196909652815180840390960186526075909201905283519301929092209392505050565b6001600160a01b03828116600090815260208190526040812054909116156102b057506001600160a01b0380831660009081526020819052604090205416610483565b6102ba838361014c565b9050803b80156102f857506001600160a01b03838116600090815260208190526040902080546001600160a01b031916918316919091179055610483565b60006040518060200161030a90610489565b601f1982820381018352601f9091011660408190526001600160a01b03871660248201527f00000000000000000000000000000000000000000000000000000000000000009060440160408051601f19818403018152918152602080830180516001600160e01b031663189acdbd60e31b179052905161038c93929101610522565b60408051601f19818403018152908290526103aa9291602001610564565b6040516020818303038152906040529050838151602083016000f592506001600160a01b03831661042d5760405162461bcd60e51b815260206004820152602360248201527f536d61727457616c6c6574466163746f72793a206372656174696f6e206661696044820152621b195960ea1b606482015260840160405180910390fd5b6001600160a01b0385811660008181526020819052604080822080546001600160a01b0319169488169485179055517f5b03bfed1c14a02bdeceb5fa582eb1a5765fc0bc64ca0e6af4c20afc9487f0819190a350505b92915050565b6104098061059483390190565b80356001600160a01b03811681146104ad57600080fd5b919050565b6000602082840312156104c457600080fd5b6104cd82610496565b9392505050565b600080604083850312156104e757600080fd5b6104f083610496565b946020939093013593505050565b60005b83811015610519578181015183820152602001610501565b50506000910152565b60018060a01b0383168152604060208201526000825180604084015261054f8160608501602087016104fe565b601f01601f1916919091016060019392505050565b600083516105768184602088016104fe565b83519083019061058a8183602088016104fe565b0194935050505056fe608060405260405161040938038061040983398101604081905261002291610267565b61002c8282610033565b5050610351565b61003c82610092565b6040516001600160a01b038316907fbc7cd75a20ee27fd9adebab32041f755214dbc6bffa90cc0225b39da2e5c2d3b90600090a280511561008657610081828261010e565b505050565b61008e610185565b5050565b806001600160a01b03163b6000036100cd57604051634c9c8ce360e01b81526001600160a01b03821660048201526024015b60405180910390fd5b7f360894a13ba1a3210667c828492db98dca3e2076cc3735a920a3ca505d382bbc80546001600160a01b0319166001600160a01b0392909216919091179055565b6060600080846001600160a01b03168460405161012b9190610335565b600060405180830381855af49150503d8060008114610166576040519150601f19603f3d011682016040523d82523d6000602084013e61016b565b606091505b50909250905061017c8583836101a6565b95945050505050565b34156101a45760405163b398979f60e01b815260040160405180910390fd5b565b6060826101bb576101b682610205565b6101fe565b81511580156101d257506001600160a01b0384163b155b156101fb57604051639996b31560e01b81526001600160a01b03851660048201526024016100c4565b50805b9392505050565b80511561021457805160208201fd5b60405163d6bda27560e01b815260040160405180910390fd5b634e487b7160e01b600052604160045260246000fd5b60005b8381101561025e578181015183820152602001610246565b50506000910152565b6000806040838503121561027a57600080fd5b82516001600160a01b038116811461029157600080fd5b60208401519092506001600160401b03808211156102ae57600080fd5b818501915085601f8301126102c257600080fd5b8151818111156102d4576102d461022d565b604051601f8201601f19908116603f011681019083821181831017156102fc576102fc61022d565b8160405282815288602084870101111561031557600080fd5b610326836020830160208801610243565b80955050505050509250929050565b60008251610347818460208701610243565b9190910192915050565b60aa8061035f6000396000f3fe6080604052600a600c565b005b60186014601a565b6051565b565b6000604c7f360894a13ba1a3210667c828492db98dca3e2076cc3735a920a3ca505d382bbc546001600160a01b031690565b905090565b3660008037600080366000845af43d6000803e808015606f573d6000f35b3d6000fdfea264697066735822122060aeada43c964f1fbb27c2d9cbef9ca57ecc24f36b6aed0059d5371ade8a972f64736f6c63430008160033a2646970667358221220133db9ef694b9ed98343d3fb8b85f6d6e0fbe2d3101334ab9a7279dbe31ed68664736f6c6343000816003360c06040523060805234801561001457600080fd5b506040516111b23803806111b283398101604081905261003391610100565b6001600160a01b03811660a05261004861004e565b50610130565b7ff0c57e16840df040f15088dc2f81fe391c3923bec73e23a9662efc9c229c6a00805468010000000000000000900460ff161561009e5760405163f92ee8a960e01b815260040160405180910390fd5b80546001600160401b03908116146100fd5780546001600160401b0319166001600160401b0390811782556040519081527fc7f505b2f371ae2175ee4913f4499e1f2633a7b5936321eed1cdaeb6115181d29060200160405180910390a15b50565b60006020828403121561011257600080fd5b81516001600160a01b038116811461012957600080fd5b9392505050565b60805160a0516110416101716000396000818161019101528181610200015261040d0152600081816106f70152818161072001526108bd01526110416000f3fe60806040526004361061008a5760003560e01c8063ad3cb1cc11610059578063ad3cb1cc1461012b578063affed0e014610169578063b0d691fe1461017f578063b61d27f6146101b3578063c4d66de8146101d357600080fd5b80633a871cdd146100965780634f1ef286146100c957806352d1902d146100de5780638da5cb5b146100f357600080fd5b3661009157005b600080fd5b3480156100a257600080fd5b506100b66100b1366004610ca4565b6101f3565b6040519081526020015b60405180910390f35b6100dc6100d7366004610d2a565b6103c6565b005b3480156100ea57600080fd5b506100b66103e5565b3480156100ff57600080fd5b50600054610113906001600160a01b031681565b6040516001600160a01b0390911681526020016100c0565b34801561013757600080fd5b5061015c604051806040016040528060058152602001640352e302e360dc1b81525081565b6040516100c09190610e10565b34801561017557600080fd5b506100b660015481565b34801561018b57600080fd5b506101137f000000000000000000000000000000000000000000000000000000000000000081565b3480156101bf57600080fd5b506100dc6101ce366004610e43565b610402565b3480156101df57600080fd5b506100dc6101ee366004610eca565b610576565b6000336001600160a01b037f000000000000000000000000000000000000000000000000000000000000000016146102725760405162461bcd60e51b815260206004820152601c60248201527f536d61727457616c6c65743a206f6e6c7920456e747279506f696e740000000060448201526064015b60405180910390fd5b7f19457468657265756d205369676e6564204d6573736167653a0a3332000000006000908152601c849052603c8120906102ee826102b4610140890189610ee5565b8080601f0160208091040260200160405190810160405280939291908181526020018383808284376000920191909152506106c292505050565b6000549091506001600160a01b0380831691161461034e5760405162461bcd60e51b815260206004820152601e60248201527f536d61727457616c6c65743a20696e76616c6964207369676e617475726500006044820152606401610269565b6001548660200135146103a35760405162461bcd60e51b815260206004820152601a60248201527f536d61727457616c6c65743a20696e76616c6964206e6f6e63650000000000006044820152606401610269565b600180549060006103b383610f33565b91905055506000925050505b9392505050565b6103ce6106ec565b6103d782610793565b6103e182826107f0565b5050565b60006103ef6108b2565b50600080516020610fec83398151915290565b336001600160a01b037f0000000000000000000000000000000000000000000000000000000000000000161461047a5760405162461bcd60e51b815260206004820152601c60248201527f536d61727457616c6c65743a206f6e6c7920456e747279506f696e74000000006044820152606401610269565b6000846001600160a01b0316848484604051610497929190610f5a565b60006040518083038185875af1925050503d80600081146104d4576040519150601f19603f3d011682016040523d82523d6000602084013e6104d9565b606091505b505090508061052a5760405162461bcd60e51b815260206004820152601d60248201527f536d61727457616c6c65743a20657865637574696f6e206661696c65640000006044820152606401610269565b846001600160a01b03167fcaf938de11c367272220bfd1d2baa99ca46665e7bc4d85f00adb51b90fe1fa9f85858560405161056793929190610f6a565b60405180910390a25050505050565b7ff0c57e16840df040f15088dc2f81fe391c3923bec73e23a9662efc9c229c6a008054600160401b810460ff16159067ffffffffffffffff166000811580156105bc5750825b905060008267ffffffffffffffff1660011480156105d95750303b155b9050811580156105e7575080155b156106055760405163f92ee8a960e01b815260040160405180910390fd5b845467ffffffffffffffff19166001178555831561062f57845460ff60401b1916600160401b1785555b600080546001600160a01b0319166001600160a01b038816908117825560405190917f3d6989c650f56d6218b28f113ea9388a71dcb843b564e0900eaa70a5a096456f91a283156106ba57845460ff60401b19168555604051600181527fc7f505b2f371ae2175ee4913f4499e1f2633a7b5936321eed1cdaeb6115181d29060200160405180910390a15b505050505050565b6000806000806106d286866108fb565b9250925092506106e28282610948565b5090949350505050565b306001600160a01b037f000000000000000000000000000000000000000000000000000000000000000016148061077357507f00000000000000000000000000000000000000000000000000000000000000006001600160a01b0316610767600080516020610fec833981519152546001600160a01b031690565b6001600160a01b031614155b156107915760405163703e46dd60e11b815260040160405180910390fd5b565b6000546001600160a01b031633146107ed5760405162461bcd60e51b815260206004820152601760248201527f536d61727457616c6c65743a206f6e6c79206f776e65720000000000000000006044820152606401610269565b50565b816001600160a01b03166352d1902d6040518163ffffffff1660e01b8152600401602060405180830381865afa92505050801561084a575060408051601f3d908101601f1916820190925261084791810190610fa0565b60015b61087257604051634c9c8ce360e01b81526001600160a01b0383166004820152602401610269565b600080516020610fec83398151915281146108a357604051632a87526960e21b815260048101829052602401610269565b6108ad8383610a01565b505050565b306001600160a01b037f000000000000000000000000000000000000000000000000000000000000000016146107915760405163703e46dd60e11b815260040160405180910390fd5b600080600083516041036109355760208401516040850151606086015160001a61092788828585610a57565b955095509550505050610941565b50508151600091506002905b9250925092565b600082600381111561095c5761095c610fb9565b03610965575050565b600182600381111561097957610979610fb9565b036109975760405163f645eedf60e01b815260040160405180910390fd5b60028260038111156109ab576109ab610fb9565b036109cc5760405163fce698f760e01b815260048101829052602401610269565b60038260038111156109e0576109e0610fb9565b036103e1576040516335e2f38360e21b815260048101829052602401610269565b610a0a82610b26565b6040516001600160a01b038316907fbc7cd75a20ee27fd9adebab32041f755214dbc6bffa90cc0225b39da2e5c2d3b90600090a2805115610a4f576108ad8282610b8b565b6103e1610c01565b600080807f7fffffffffffffffffffffffffffffff5d576e7357a4501ddfe92f46681b20a0841115610a925750600091506003905082610b1c565b604080516000808252602082018084528a905260ff891692820192909252606081018790526080810186905260019060a0016020604051602081039080840390855afa158015610ae6573d6000803e3d6000fd5b5050604051601f1901519150506001600160a01b038116610b1257506000925060019150829050610b1c565b9250600091508190505b9450945094915050565b806001600160a01b03163b600003610b5c57604051634c9c8ce360e01b81526001600160a01b0382166004820152602401610269565b600080516020610fec83398151915280546001600160a01b0319166001600160a01b0392909216919091179055565b6060600080846001600160a01b031684604051610ba89190610fcf565b600060405180830381855af49150503d8060008114610be3576040519150601f19603f3d011682016040523d82523d6000602084013e610be8565b606091505b5091509150610bf8858383610c20565b95945050505050565b34156107915760405163b398979f60e01b815260040160405180910390fd5b606082610c3557610c3082610c7c565b6103bf565b8151158015610c4c57506001600160a01b0384163b155b15610c7557604051639996b31560e01b81526001600160a01b0385166004820152602401610269565b50806103bf565b805115610c8b57805160208201fd5b60405163d6bda27560e01b815260040160405180910390fd5b600080600060608486031215610cb957600080fd5b833567ffffffffffffffff811115610cd057600080fd5b84016101608187031215610ce357600080fd5b95602085013595506040909401359392505050565b80356001600160a01b0381168114610d0f57600080fd5b919050565b634e487b7160e01b600052604160045260246000fd5b60008060408385031215610d3d57600080fd5b610d4683610cf8565b9150602083013567ffffffffffffffff80821115610d6357600080fd5b818501915085601f830112610d7757600080fd5b813581811115610d8957610d89610d14565b604051601f8201601f19908116603f01168101908382118183101715610db157610db1610d14565b81604052828152886020848701011115610dca57600080fd5b8260208601602083013760006020848301015280955050505050509250929050565b60005b83811015610e07578181015183820152602001610def565b50506000910152565b6020815260008251806020840152610e2f816040850160208701610dec565b601f01601f19169190910160400192915050565b60008060008060608587031215610e5957600080fd5b610e6285610cf8565b935060208501359250604085013567ffffffffffffffff80821115610e8657600080fd5b818701915087601f830112610e9a57600080fd5b813581811115610ea957600080fd5b886020828501011115610ebb57600080fd5b95989497505060200194505050565b600060208284031215610edc57600080fd5b6103bf82610cf8565b6000808335601e19843603018112610efc57600080fd5b83018035915067ffffffffffffffff821115610f1757600080fd5b602001915036819003821315610f2c57600080fd5b9250929050565b600060018201610f5357634e487b7160e01b600052601160045260246000fd5b5060010190565b8183823760009101908152919050565b83815260406020820152816040820152818360608301376000818301606090810191909152601f909201601f1916010192915050565b600060208284031215610fb257600080fd5b5051919050565b634e487b7160e01b600052602160045260246000fd5b60008251610fe1818460208701610dec565b919091019291505056fe360894a13ba1a3210667c828492db98dca3e2076cc3735a920a3ca505d382bbca2646970667358221220ca807504e82b6acf381bee88f9d8dc5ce0ae6cfb9e62c0e979d7693a87966a7564736f6c63430008160033",
  "linkReferences": {},
  "deployedLinkReferences": {}
}