{
  "_format": "hh-sol-artifact-1",
  "contractName": "TicketNFT",
  "sourceName": "contracts/TicketNFT.sol",
  "abi": [
    {
      "inputs": [
        {
          "internalType": "address",
          "name": "admin",
          "type": "address"
        }
      ],
      "stateMutability": "nonpayable",
      "type": "constructor"
    },
    {
      "inputs": [],
      "name": "AccessControlBadConfirmation",
      "type": "error"
    },
    {
      "inputs": [
        {
          "internalType": "address",
          "name": "account",
          "type": "address"
        },
        {
          "internalType": "bytes32",
          "name": "neededRole",
          "type": "bytes32"
        }
      ],
      "name": "AccessControlUnauthorizedAccount",
      "type": "error"
    },
    {
      "inputs": [
        {
          "internalType": "address",
          "name": "sender",
          "type": "address"
        },
        {
          "internalType": "uint256",
          "name": "tokenId",
          "type": "uint256"
        },
        {
          "internalType": "address",
          "name": "owner",
          "type": "address"
        }
      ],
      "name": "ERC721IncorrectOwner",
      "type": "error"
    },
    {
      "inputs": [
        {
          "internalType": "address",
          "name": "operator",
          "type": "address"
        },
        {
          "internalType": "uint256",
          "name": "tokenId",
          "type": "uint256"
        }
      ],
      "name": "ERC721InsufficientApproval",
      "type": "error"
    },
    {
      "inputs": [
        {
          "internalType": "address",
          "name": "approver",
          "type": "address"
        }
      ],
      "name": "ERC721InvalidApprover",
      "type": "error"
    },
    {
      "inputs": [
        {
          "internalType": "address",
          "name": "operator",
          "type": "address"
        }
      ],
      "name": "ERC721InvalidOperator",
      "type": "error"
    },
    {
      "inputs": [
        {
          "internalType": "address",
          "name": "owner",
          "type": "address"
        }
      ],
      "name": "ERC721InvalidOwner",
      "type": "error"
    },
    {
      "inputs": [
        {
          "internalType": "address",
          "name": "receiver",
          "type": "address"
        }
      ],
      "name": "ERC721InvalidReceiver",
      "type": "error"
    },
    {
      "inputs": [
        {
          "internalType": "address",
          "name": "sender",
          "type": "address"
        }
      ],
      "name": "ERC721InvalidSender",
      "type": "error"
    },
    {
      "inputs": [
        {
          "internalType": "uint256",
          "name": "tokenId",
          "type": "uint256"
        }
      ],
      "name": "ERC721NonexistentToken",
      "type": "error"
    },
    {
      "inputs": [],
      "name": "ReentrancyGuardReentrantCall",
      "type": "error"
    },
    {
      "anonymous": false,
      "inputs": [
        {
          "indexed": true,
          "internalType": "address",
          "name": "owner",
          "type": "address"
        },
        {
          "indexed": true,
          "internalType": "address",
          "name": "approved",
          "type": "address"
        },
        {
          "indexed": true,
          "internalType": "uint256",
          "name": "tokenId",
          "type": "uint256"
        }
      ],
      "name": "Approval",
      "type": "event"
    },
    {
      "anonymous": false,
      "inputs": [
        {
          "indexed": true,
          "internalType": "address",
          "name": "owner",
          "type": "address"
        },
        {
          "indexed": true,
          "internalType": "address",
          "name": "operator",
          "type": "address"
        },
        {
          "indexed": false,
          "internalType": "bool",
          "name": "approved",
          "type": "bool"
        }
      ],
      "name": "ApprovalForAll",
      "type": "event"
    },
    {
      "anonymous": false,
      "inputs": [
        {
          "indexed": false,
          "internalType": "uint256",
          "name": "_fromTokenId",
          "type": "uint256"
        },
        {
          "indexed": false,
          "internalType": "uint256",
          "name": "_toTokenId",
          "type": "uint256"
        }
      ],
      "name": "BatchMetadataUpdate",
      "type": "event"
    },
    {
      "anonymous": false,
      "inputs": [
        {
          "indexed": false,
          "internalType": "uint256",
          "name": "_tokenId",
          "type": "uint256"
        }
      ],
      "name": "MetadataUpdate",
      "type": "event"
    },
    {
      "anonymous": false,
      "inputs": [
        {
          "indexed": true,
          "internalType": "bytes32",
          "name": "role",
          "type": "bytes32"
        },
        {
          "indexed": true,
          "internalType": "bytes32",
          "name": "previousAdminRole",
          "type": "bytes32"
        },
        {
          "indexed": true,
          "internalType": "bytes32",
          "name": "newAdminRole",
          "type": "bytes32"
        }
      ],
      "name": "RoleAdminChanged",
      "type": "event"
    },
    {
      "anonymous": false,
      "inputs": [
        {
          "indexed": true,
          "internalType": "bytes32",
          "name": "role",
          "type": "bytes32"
        },
        {
          "indexed": true,
          "internalType": "address",
          "name": "account",
          "type": "address"
        },
        {
          "indexed": true,
          "internalType": "address",
          "name": "sender",
          "type": "address"
        }
      ],
      "name": "RoleGranted",
      "type": "event"
    },
    {
      "anonymous": false,
      "inputs": [
        {
          "indexed": true,
          "internalType": "bytes32",
          "name": "role",
          "type": "bytes32"
        },
        {
          "indexed": true,
          "internalType": "address",
          "name": "account",
          "type": "address"
        },
        {
          "indexed": true,
          "internalType": "address",
          "name": "sender",
          "type": "address"
        }
      ],
      "name": "RoleRevoked",
      "type": "event"
    },
    {
      "anonymous": false,
      "inputs": [
        {
          "indexed": true,
          "internalType": "uint256",
          "name": "tokenId",
          "type": "uint256"
        }
      ],
      "name": "TicketBurned",
      "type": "event"
    },
    {
      "anonymous": false,
      "inputs": [
        {
          "indexed": true,
          "internalType": "uint256",
          "name": "tokenId",
          "type": "uint256"
        },
        {
          "indexed": true,
          "internalType": "uint256",
          "name": "eventId",
          "type": "uint256"
        },
        {
          "indexed": true,
          "internalType": "address",
          "name": "to",
          "type": "address"
        },
        {
          "indexed": false,
          "internalType": "string",
          "name": "tokenURI",
          "type": "string"
        }
      ],
      "name": "TicketMinted",
      "type": "event"
    },
    {
      "anonymous": false,
      "inputs": [
        {
          "indexed": true,
          "internalType": "address",
          "name": "from",
          "type": "address"
        },
        {
          "indexed": true,
          "internalType": "address",
          "name": "to",
          "type": "address"
        },
        {
          "indexed": true,
          "internalType": "uint256",
          "name": "tokenId",
          "type": "uint256"
        }
      ],
      "name": "Transfer",
      "type": "event"
    },
    {
      "inputs": [],
      "name": "BURNER_ROLE",
      "outputs": [
        {
          "internalType": "bytes32",
          "name": "",
          "type": "bytes32"
        }
      ],
      "stateMutability": "view",
      "type": "function"
    },
    {
      "inputs": [],
      "name": "DEFAULT_ADMIN_ROLE",
      "outputs": [
        {
          "internalType": "bytes32",
          "name": "",
          "type": "bytes32"
        }
      ],
      "stateMutability": "view",
      "type": "function"
    },
    {
      "inputs": [],
      "name": "MINTER_ROLE",
      "outputs": [
        {
          "internalType": "bytes32",
          "name": "",
          "type": "bytes32"
        }
      ],
      "stateMutability": "view",
      "type": "function"
    },
    {
      "inputs": [
        {
          "internalType": "address",
          "name": "to",
          "type": "address"
        },
        {
          "internalType": "uint256",
          "name": "tokenId",
          "type": "uint256"
        }
      ],
      "name": "approve",
      "outputs": [],
      "stateMutability": "nonpayable",
      "type": "function"
    },
    {
      "inputs": [
        {
          "internalType": "address",
          "name": "owner",
          "type": "address"
        }
      ],
      "name": "balanceOf",
      "outputs": [
        {
          "internalType": "uint256",
          "name": "",
          "type": "uint256"
        }
      ],
      "stateMutability": "view",
      "type": "function"
    },
    {
      "inputs": [
        {
          "internalType": "uint256",
          "name": "tokenId",
          "type": "uint256"
        }
      ],
      "name": "burnTicket",
      "outputs": [],
      "stateMutability": "nonpayable",
      "type": "function"
    },
    {
      "inputs": [
        {
          "internalType": "uint256",
          "name": "",
          "type": "uint256"
        }
      ],
      "name": "eventTicketCount",
      "outputs": [
        {
          "internalType": "uint256",
          "name": "",
          "type": "uint256"
        }
      ],
      "stateMutability": "view",
      "type": "function"
    },
    {
      "inputs": [
        {
          "internalType": "uint256",
          "name": "tokenId",
          "type": "uint256"
        }
      ],
      "name": "getApproved",
      "outputs": [
        {
          "internalType": "address",
          "name": "",
          "type": "address"
        }
      ],
      "stateMutability": "view",
      "type": "function"
    },
    {
      "inputs": [],
      "name": "getCurrentTokenId",
      "outputs": [
        {
          "internalType": "uint256",
          "name": "",
          "type": "uint256"
        }
      ],
      "stateMutability": "view",
      "type": "function"
    },
    {
      "inputs": [
        {
          "internalType": "uint256",
          "name": "eventId",
          "type": "uint256"
        }
      ],
      "name": "getEventTicketCount",
      "outputs": [
        {
          "internalType": "uint256",
          "name": "",
          "type": "uint256"
        }
      ],
      "stateMutability": "view",
      "type": "function"
    },
    {
      "inputs": [
        {
          "internalType": "bytes32",
          "name": "role",
          "type": "bytes32"
        }
      ],
      "name": "getRoleAdmin",
      "outputs": [
        {
          "internalType": "bytes32",
          "name": "",
          "type": "bytes32"
        }
      ],
      "stateMutability": "view",
      "type": "function"
    },
    {
      "inputs": [
        {
          "internalType": "bytes32",
          "name": "role",
          "type": "bytes32"
        },
        {
          "internalType": "address",
          "name": "account",
          "type": "address"
        }
      ],
      "name": "grantRole",
      "outputs": [],
      "stateMutability": "nonpayable",
      "type": "function"
    },
    {
      "inputs": [
        {
          "internalType": "bytes32",
          "name": "role",
          "type": "bytes32"
        },
        {
          "internalType": "address",
          "name": "account",
          "type": "address"
        }
      ],
      "name": "hasRole",
      "outputs": [
        {
          "internalType": "bool",
          "name": "",
          "type": "bool"
        }
      ],
      "stateMutability": "view",
      "type": "function"
    },
    {
      "inputs": [
        {
          "internalType": "address",
          "name": "owner",
          "type": "address"
        },
        {
          "internalType": "address",
          "name": "operator",
          "type": "address"
        }
      ],
      "name": "isApprovedForAll",
      "outputs": [
        {
          "internalType": "bool",
          "name": "",
          "type": "bool"
        }
      ],
      "stateMutability": "view",
      "type": "function"
    },
    {
      "inputs": [
        {
          "internalType": "address",
          "name": "to",
          "type": "address"
        },
        {
          "internalType": "uint256",
          "name": "eventId",
          "type": "uint256"
        },
        {
          "internalType": "string",
          "name": "tokenURI",
          "type": "string"
        }
      ],
      "name": "mintTicket",
      "outputs": [
        {
          "internalType": "uint256",
          "name": "",
          "type": "uint256"
        }
      ],
      "stateMutability": "nonpayable",
      "type": "function"
    },
    {
      "inputs": [],
      "name": "name",
      "outputs": [
        {
          "internalType": "string",
          "name": "",
          "type": "string"
        }
      ],
      "stateMutability": "view",
      "type": "function"
    },
    {
      "inputs": [
        {
          "internalType": "uint256",
          "name": "tokenId",
          "type": "uint256"
        }
      ],
      "name": "ownerOf",
      "outputs": [
        {
          "internalType": "address",
          "name": "",
          "type": "address"
        }
      ],
      "stateMutability": "view",
      "type": "function"
    },
    {
      "inputs": [
        {
          "internalType": "bytes32",
          "name": "role",
          "type": "bytes32"
        },
        {
          "internalType": "address",
          "name": "callerConfirmation",
          "type": "address"
        }
      ],
      "name": "renounceRole",
      "outputs": [],
      "stateMutability": "nonpayable",
      "type": "function"
    },
    {
      "inputs": [
        {
          "internalType": "bytes32",
          "name": "role",
          "type": "bytes32"
        },
        {
          "internalType": "address",
          "name": "account",
          "type": "address"
        }
      ],
      "name": "revokeRole",
      "outputs": [],
      "stateMutability": "nonpayable",
      "type": "function"
    },
    {
      "inputs": [
        {
          "internalType": "address",
          "name": "from",
          "type": "address"
        },
        {
          "internalType": "address",
          "name": "to",
          "type": "address"
        },
        {
          "internalType": "uint256",
          "name": "tokenId",
          "type": "uint256"
        }
      ],
      "name": "safeTransferFrom",
      "outputs": [],
      "stateMutability": "nonpayable",
      "type": "function"
    },
    {
      "inputs": [
        {
          "internalType": "address",
          "name": "from",
          "type": "address"
        },
        {
          "internalType": "address",
          "name": "to",
          "type": "address"
        },
        {
          "internalType": "uint256",
          "name": "tokenId",
          "type": "uint256"
        },
        {
          "internalType": "bytes",
          "name": "data",
          "type": "bytes"
        }
      ],
      "name": "safeTransferFrom",
      "outputs": [],
      "stateMutability": "nonpayable",
      "type": "function"
    },
    {
      "inputs": [
        {
          "internalType": "address",
          "name": "operator",
          "type": "address"
        },
        {
          "internalType": "bool",
          "name": "approved",
          "type": "bool"
        }
      ],
      "name": "setApprovalForAll",
      "outputs": [],
      "stateMutability": "nonpayable",
      "type": "function"
    },
    {
      "inputs": [
        {
          "internalType": "bytes4",
          "name": "interfaceId",
          "type": "bytes4"
        }
      ],
      "name": "supportsInterface",
      "outputs": [
        {
          "internalType": "bool",
          "name": "",
          "type": "bool"
        }
      ],
      "stateMutability": "view",
      "type": "function"
    },
    {
      "inputs": [],
      "name": "symbol",
      "outputs": [
        {
          "internalType": "string",
          "name": "",
          "type": "string"
        }
      ],
      "stateMutability": "view",
      "type": "function"
    },
    {
      "inputs": [
        {
          "internalType": "uint256",
          "name": "",
          "type": "uint256"
        }
      ],
      "name": "tokenToEvent",
      "outputs": [
        {
          "internalType": "uint256",
          "name": "",
          "type": "uint256"
        }
      ],
      "stateMutability": "view",
      "type": "function"
    },
    {
      "inputs": [
        {
          "internalType": "uint256",
          "name": "tokenId",
          "type": "uint256"
        }
      ],
      "name": "tokenURI",
      "outputs": [
        {
          "internalType": "string",
          "name": "",
          "type": "string"
        }
      ],
      "stateMutability": "view",
      "type": "function"
    },
    {
      "inputs": [
        {
          "internalType": "address",
          "name": "from",
          "type": "address"
        },
        {
          "internalType": "address",
          "name": "to",
          "type": "address"
        },
        {
          "internalType": "uint256",
          "name": "tokenId",
          "type": "uint256"
        }
      ],
      "name": "transferFrom",
      "outputs": [],
      "stateMutability": "nonpayable",
      "type": "function"
    }
  ],
  "bytecode": "0x60806040523480156200001157600080fd5b5060405162001cf238038062001cf28339810160408190526200003491620001bc565b60405180604001604052806009815260200168151a58dad95d13919560ba1b815250604051806040016040528060038152602001621512d560ea1b815250816000908162000083919062000293565b50600162000092828262000293565b5050600160085550620000a760008262000109565b50620000d47f9f2df0fed2c77648de5860a4cc508cd0818c85b8b8a1ab4ceeef8d981c8956a68262000109565b50620001017f3c11d16cbaffd01df69ce1c404f6340ee057498f5f00246190ea54220576a8488262000109565b50506200035f565b60008281526007602090815260408083206001600160a01b038516845290915281205460ff16620001b25760008381526007602090815260408083206001600160a01b03861684529091529020805460ff19166001179055620001693390565b6001600160a01b0316826001600160a01b0316847f2f8788117e7eff1d82e926ec794901d17c78024a50270940304540a733656f0d60405160405180910390a4506001620001b6565b5060005b92915050565b600060208284031215620001cf57600080fd5b81516001600160a01b0381168114620001e757600080fd5b9392505050565b634e487b7160e01b600052604160045260246000fd5b600181811c908216806200021957607f821691505b6020821081036200023a57634e487b7160e01b600052602260045260246000fd5b50919050565b601f8211156200028e57600081815260208120601f850160051c81016020861015620002695750805b601f850160051c820191505b818110156200028a5782815560010162000275565b5050505b505050565b81516001600160401b03811115620002af57620002af620001ee565b620002c781620002c0845462000204565b8462000240565b602080601f831160018114620002ff5760008415620002e65750858301515b600019600386901b1c1916600185901b1785556200028a565b600085815260208120601f198616915b8281101562000330578886015182559484019460019091019084016200030f565b50858210156200034f5787850151600019600388901b60f8161c191681555b5050505050600190811b01905550565b611983806200036f6000396000f3fe608060405234801561001057600080fd5b50600436106101a95760003560e01c80636352211e116100f9578063b88d4fde11610097578063d539139311610071578063d5391393146103bf578063d547741f146103e6578063e985e9c5146103f9578063fd9ea3191461040c57600080fd5b8063b88d4fde14610379578063c87b56dd1461038c578063cc9d70711461039f57600080fd5b806395d89b41116100d357806395d89b4114610343578063a217fddf1461034b578063a22cb46514610353578063a476b73d1461036657600080fd5b80636352211e1461030a57806370a082311461031d57806391d148541461033057600080fd5b806323b872dd116101665780632f2ff15d116101405780632f2ff15d146102c957806336568abe146102dc57806342842e0e146102ef578063561892361461030257600080fd5b806323b872dd1461026c578063248a9ca31461027f578063282c51f3146102a257600080fd5b806301ffc9a7146101ae57806303543fea146101d657806306fdde03146101f7578063081812fc1461020c578063095ea7b3146102375780631af32d781461024c575b600080fd5b6101c16101bc366004611403565b61042c565b60405190151581526020015b60405180910390f35b6101e96101e43660046114c8565b61043d565b6040519081526020016101cd565b6101ff610522565b6040516101cd9190611583565b61021f61021a366004611596565b6105b4565b6040516001600160a01b0390911681526020016101cd565b61024a6102453660046115af565b6105dd565b005b6101e961025a366004611596565b600b6020526000908152604090205481565b61024a61027a3660046115d9565b6105ec565b6101e961028d366004611596565b60009081526007602052604090206001015490565b6101e97f3c11d16cbaffd01df69ce1c404f6340ee057498f5f00246190ea54220576a84881565b61024a6102d7366004611615565b61067c565b61024a6102ea366004611615565b6106a1565b61024a6102fd3660046115d9565b6106d9565b6009546101e9565b61021f610318366004611596565b6106f4565b6101e961032b366004611641565b6106ff565b6101c161033e366004611615565b610747565b6101ff610772565b6101e9600081565b61024a61036136600461165c565b610781565b61024a610374366004611596565b61078c565b61024a610387366004611698565b610881565b6101ff61039a366004611596565b610899565b6101e96103ad366004611596565b600a6020526000908152604090205481565b6101e97f9f2df0fed2c77648de5860a4cc508cd0818c85b8b8a1ab4ceeef8d981c8956a681565b61024a6103f4366004611615565b6109aa565b6101c1610407366004611714565b6109cf565b6101e961041a366004611596565b6000908152600b602052604090205490565b6000610437826109fd565b92915050565b60007f9f2df0fed2c77648de5860a4cc508cd0818c85b8b8a1ab4ceeef8d981c8956a661046981610a22565b610471610a2f565b60098054908190600061048383611754565b91905055506104928682610a59565b61049c8185610a73565b6000818152600a60209081526040808320889055878352600b90915281208054916104c683611754565b9190505550856001600160a01b031685827f788aac23bf3a0178a9d13b62024cd754d0570909f1f9f3f441dff4dfe2579f6f876040516105069190611583565b60405180910390a4915061051a6001600855565b509392505050565b6060600080546105319061176d565b80601f016020809104026020016040519081016040528092919081815260200182805461055d9061176d565b80156105aa5780601f1061057f576101008083540402835291602001916105aa565b820191906000526020600020905b81548152906001019060200180831161058d57829003601f168201915b5050505050905090565b60006105bf82610ac3565b506000828152600460205260409020546001600160a01b0316610437565b6105e8828233610afc565b5050565b6001600160a01b03821661061b57604051633250574960e11b8152600060048201526024015b60405180910390fd5b6000610628838333610b09565b9050836001600160a01b0316816001600160a01b031614610676576040516364283d7b60e01b81526001600160a01b0380861660048301526024820184905282166044820152606401610612565b50505050565b60008281526007602052604090206001015461069781610a22565b6106768383610b16565b6001600160a01b03811633146106ca5760405163334bd91960e11b815260040160405180910390fd5b6106d48282610baa565b505050565b6106d483838360405180602001604052806000815250610881565b600061043782610ac3565b60006001600160a01b03821661072b576040516322718ad960e21b815260006004820152602401610612565b506001600160a01b031660009081526003602052604090205490565b60009182526007602090815260408084206001600160a01b0393909316845291905290205460ff1690565b6060600180546105319061176d565b6105e8338383610c17565b7f3c11d16cbaffd01df69ce1c404f6340ee057498f5f00246190ea54220576a8486107b681610a22565b6000828152600260205260409020546001600160a01b031661081a5760405162461bcd60e51b815260206004820152601f60248201527f5469636b65744e46543a20746f6b656e20646f6573206e6f74206578697374006044820152606401610612565b6000828152600a602052604090205461083283610cb6565b6000818152600b6020526040812080549161084c836117a7565b909155505060405183907fd6acdc6c4f4076335309cf5eeb3b91b03b26861765e0726fce70f4617de8c7c690600090a2505050565b61088c8484846105ec565b6106763385858585610cf1565b60606108a482610ac3565b50600082815260066020526040812080546108be9061176d565b80601f01602080910402602001604051908101604052809291908181526020018280546108ea9061176d565b80156109375780601f1061090c57610100808354040283529160200191610937565b820191906000526020600020905b81548152906001019060200180831161091a57829003601f168201915b50505050509050600061095560408051602081019091526000815290565b90508051600003610967575092915050565b8151156109995780826040516020016109819291906117be565b60405160208183030381529060405292505050919050565b6109a284610e1c565b949350505050565b6000828152600760205260409020600101546109c581610a22565b6106768383610baa565b6001600160a01b03918216600090815260056020908152604080832093909416825291909152205460ff1690565b60006001600160e01b03198216637965db0b60e01b1480610437575061043782610e91565b610a2c8133610eb6565b50565b600260085403610a5257604051633ee5aeb560e01b815260040160405180910390fd5b6002600855565b6105e8828260405180602001604052806000815250610eef565b6000828152600660205260409020610a8b8282611833565b506040518281527ff8e1a15aba9398e019f0b49df1a4fde98ee17ae345cb5f6b5e2c27f5033e8ce79060200160405180910390a15050565b6000818152600260205260408120546001600160a01b03168061043757604051637e27328960e01b815260048101849052602401610612565b6106d48383836001610f07565b60006109a284848461100d565b6000610b228383610747565b610ba25760008381526007602090815260408083206001600160a01b03861684529091529020805460ff19166001179055610b5a3390565b6001600160a01b0316826001600160a01b0316847f2f8788117e7eff1d82e926ec794901d17c78024a50270940304540a733656f0d60405160405180910390a4506001610437565b506000610437565b6000610bb68383610747565b15610ba25760008381526007602090815260408083206001600160a01b0386168085529252808320805460ff1916905551339286917ff6391f5c32d9c69d2a47ea670b442974b53935d1edc7fd64eb21e047a839171b9190a4506001610437565b6001600160a01b038216610c4957604051630b61174360e31b81526001600160a01b0383166004820152602401610612565b6001600160a01b03838116600081815260056020908152604080832094871680845294825291829020805460ff191686151590811790915591519182527f17307eab39ab6107e8899845ad3d59bd9653f200f220920489ca2b5937696c31910160405180910390a3505050565b6000610cc56000836000610b09565b90506001600160a01b0381166105e857604051637e27328960e01b815260048101839052602401610612565b6001600160a01b0383163b15610e1557604051630a85bd0160e11b81526001600160a01b0384169063150b7a0290610d339088908890879087906004016118f3565b6020604051808303816000875af1925050508015610d6e575060408051601f3d908101601f19168201909252610d6b91810190611930565b60015b610dd7573d808015610d9c576040519150601f19603f3d011682016040523d82523d6000602084013e610da1565b606091505b508051600003610dcf57604051633250574960e11b81526001600160a01b0385166004820152602401610612565b805160208201fd5b6001600160e01b03198116630a85bd0160e11b14610e1357604051633250574960e11b81526001600160a01b0385166004820152602401610612565b505b5050505050565b6060610e2782610ac3565b506000610e3f60408051602081019091526000815290565b90506000815111610e5f5760405180602001604052806000815250610e8a565b80610e6984611106565b604051602001610e7a9291906117be565b6040516020818303038152906040525b9392505050565b60006001600160e01b03198216632483248360e11b1480610437575061043782611199565b610ec08282610747565b6105e85760405163e2517d3f60e01b81526001600160a01b038216600482015260248101839052604401610612565b610ef983836111e9565b6106d4336000858585610cf1565b8080610f1b57506001600160a01b03821615155b15610fdd576000610f2b84610ac3565b90506001600160a01b03831615801590610f575750826001600160a01b0316816001600160a01b031614155b8015610f6a5750610f6881846109cf565b155b15610f935760405163a9fbf51f60e01b81526001600160a01b0384166004820152602401610612565b8115610fdb5783856001600160a01b0316826001600160a01b03167f8c5be1e5ebec7d5bd14f71427d1e84f3dd0314c0f7b2291e5b200ac8c7c3b92560405160405180910390a45b505b5050600090815260046020526040902080546001600160a01b0319166001600160a01b0392909216919091179055565b6000828152600260205260408120546001600160a01b039081169083161561103a5761103a81848661124e565b6001600160a01b0381161561107857611057600085600080610f07565b6001600160a01b038116600090815260036020526040902080546000190190555b6001600160a01b038516156110a7576001600160a01b0385166000908152600360205260409020805460010190555b60008481526002602052604080822080546001600160a01b0319166001600160a01b0389811691821790925591518793918516917fddf252ad1be2c89b69c2b068fc378daa952ba7f163c4a11628f55a4df523b3ef91a4949350505050565b60606000611113836112b2565b600101905060008167ffffffffffffffff8111156111335761113361143c565b6040519080825280601f01601f19166020018201604052801561115d576020820181803683370190505b5090508181016020015b600019016f181899199a1a9b1b9c1cb0b131b232b360811b600a86061a8153600a850494508461116757509392505050565b60006001600160e01b031982166380ac58cd60e01b14806111ca57506001600160e01b03198216635b5e139f60e01b145b8061043757506301ffc9a760e01b6001600160e01b0319831614610437565b6001600160a01b03821661121357604051633250574960e11b815260006004820152602401610612565b600061122183836000610b09565b90506001600160a01b038116156106d4576040516339e3563760e11b815260006004820152602401610612565b61125983838361138a565b6106d4576001600160a01b03831661128757604051637e27328960e01b815260048101829052602401610612565b60405163177e802f60e01b81526001600160a01b038316600482015260248101829052604401610612565b60008072184f03e93ff9f4daa797ed6e38ed64bf6a1f0160401b83106112f15772184f03e93ff9f4daa797ed6e38ed64bf6a1f0160401b830492506040015b6d04ee2d6d415b85acef8100000000831061131d576d04ee2d6d415b85acef8100000000830492506020015b662386f26fc10000831061133b57662386f26fc10000830492506010015b6305f5e1008310611353576305f5e100830492506008015b612710831061136757612710830492506004015b60648310611379576064830492506002015b600a83106104375760010192915050565b60006001600160a01b038316158015906109a25750826001600160a01b0316846001600160a01b031614806113c457506113c484846109cf565b806109a25750506000908152600460205260409020546001600160a01b03908116911614919050565b6001600160e01b031981168114610a2c57600080fd5b60006020828403121561141557600080fd5b8135610e8a816113ed565b80356001600160a01b038116811461143757600080fd5b919050565b634e487b7160e01b600052604160045260246000fd5b600067ffffffffffffffff8084111561146d5761146d61143c565b604051601f8501601f19908116603f011681019082821181831017156114955761149561143c565b816040528093508581528686860111156114ae57600080fd5b858560208301376000602087830101525050509392505050565b6000806000606084860312156114dd57600080fd5b6114e684611420565b925060208401359150604084013567ffffffffffffffff81111561150957600080fd5b8401601f8101861361151a57600080fd5b61152986823560208401611452565b9150509250925092565b60005b8381101561154e578181015183820152602001611536565b50506000910152565b6000815180845261156f816020860160208601611533565b601f01601f19169290920160200192915050565b602081526000610e8a6020830184611557565b6000602082840312156115a857600080fd5b5035919050565b600080604083850312156115c257600080fd5b6115cb83611420565b946020939093013593505050565b6000806000606084860312156115ee57600080fd5b6115f784611420565b925061160560208501611420565b9150604084013590509250925092565b6000806040838503121561162857600080fd5b8235915061163860208401611420565b90509250929050565b60006020828403121561165357600080fd5b610e8a82611420565b6000806040838503121561166f57600080fd5b61167883611420565b91506020830135801515811461168d57600080fd5b809150509250929050565b600080600080608085870312156116ae57600080fd5b6116b785611420565b93506116c560208601611420565b925060408501359150606085013567ffffffffffffffff8111156116e857600080fd5b8501601f810187136116f957600080fd5b61170887823560208401611452565b91505092959194509250565b6000806040838503121561172757600080fd5b61173083611420565b915061163860208401611420565b634e487b7160e01b600052601160045260246000fd5b6000600182016117665761176661173e565b5060010190565b600181811c9082168061178157607f821691505b6020821081036117a157634e487b7160e01b600052602260045260246000fd5b50919050565b6000816117b6576117b661173e565b506000190190565b600083516117d0818460208801611533565b8351908301906117e4818360208801611533565b01949350505050565b601f8211156106d457600081815260208120601f850160051c810160208610156118145750805b601f850160051c820191505b81811015610e1357828155600101611820565b815167ffffffffffffffff81111561184d5761184d61143c565b6118618161185b845461176d565b846117ed565b602080601f831160018114611896576000841561187e5750858301515b600019600386901b1c1916600185901b178555610e13565b600085815260208120601f198616915b828110156118c5578886015182559484019460019091019084016118a6565b50858210156118e35787850151600019600388901b60f8161c191681555b5050505050600190811b01905550565b6001600160a01b038581168252841660208201526040810183905260806060820181905260009061192690830184611557565b9695505050505050565b60006020828403121561194257600080fd5b8151610e8a816113ed56fea264697066735822122014d4689c09c9b122a34a0eb6a702880c88b8ff7d27a4a8f6fdd0ba4310ab17f864736f6c63430008140033",
  "linkReferences": {},
  "deployedLinkReferences": {}
}