{
  "_format": "hh-sol-artifact-1",
  "contractName": "TicketMarketplace",
  "sourceName": "contracts/TicketMarketplace.sol",
  "abi": [
    {
      "inputs": [
        {
          "internalType": "address",
          "name": "_accessControl",
          "type": "address"
        },
        {
          "internalType": "address",
          "name": "_ticketNFT",
          "type": "address"
        },
        {
          "internalType": "address",
          "name": "_eventManager",
          "type": "address"
        },
        {
          "internalType": "address",
          "name": "_feeRecipient",
          "type": "address"
        }
      ],
      "stateMutability": "nonpayable",
      "type": "constructor"
    },
    {
      "inputs": [],
      "name": "AccessControlBadConfirmation",
      "type": "error"
    },
    {
      "inputs": [
        {
          "internalType": "address",
          "name": "account",
          "type": "address"
        },
        {
          "internalType": "bytes32",
          "name": "neededRole",
          "type": "bytes32"
        }
      ],
      "name": "AccessControlUnauthorizedAccount",
      "type": "error"
    },
    {
      "inputs": [],
      "name": "ReentrancyGuardReentrantCall",
      "type": "error"
    },
    {
      "anonymous": false,
      "inputs": [
        {
          "indexed": true,
          "internalType": "uint256",
          "name": "tokenId",
          "type": "uint256"
        }
      ],
      "name": "ListingCancelled",
      "type": "event"
    },
    {
      "anonymous": false,
      "inputs": [
        {
          "indexed": false,
          "internalType": "uint256",
          "name": "newMultiplier",
          "type": "uint256"
        }
      ],
      "name": "MaxPriceMultiplierUpdated",
      "type": "event"
    },
    {
      "anonymous": false,
      "inputs": [
        {
          "indexed": false,
          "internalType": "uint256",
          "name": "newFee",
          "type": "uint256"
        }
      ],
      "name": "PlatformFeeUpdated",
      "type": "event"
    },
    {
      "anonymous": false,
      "inputs": [
        {
          "indexed": true,
          "internalType": "bytes32",
          "name": "role",
          "type": "bytes32"
        },
        {
          "indexed": true,
          "internalType": "bytes32",
          "name": "previousAdminRole",
          "type": "bytes32"
        },
        {
          "indexed": true,
          "internalType": "bytes32",
          "name": "newAdminRole",
          "type": "bytes32"
        }
      ],
      "name": "RoleAdminChanged",
      "type": "event"
    },
    {
      "anonymous": false,
      "inputs": [
        {
          "indexed": true,
          "internalType": "bytes32",
          "name": "role",
          "type": "bytes32"
        },
        {
          "indexed": true,
          "internalType": "address",
          "name": "account",
          "type": "address"
        },
        {
          "indexed": true,
          "internalType": "address",
          "name": "sender",
          "type": "address"
        }
      ],
      "name": "RoleGranted",
      "type": "event"
    },
    {
      "anonymous": false,
      "inputs": [
        {
          "indexed": true,
          "internalType": "bytes32",
          "name": "role",
          "type": "bytes32"
        },
        {
          "indexed": true,
          "internalType": "address",
          "name": "account",
          "type": "address"
        },
        {
          "indexed": true,
          "internalType": "address",
          "name": "sender",
          "type": "address"
        }
      ],
      "name": "RoleRevoked",
      "type": "event"
    },
    {
      "anonymous": false,
      "inputs": [
        {
          "indexed": true,
          "internalType": "uint256",
          "name": "tokenId",
          "type": "uint256"
        },
        {
          "indexed": true,
          "internalType": "address",
          "name": "seller",
          "type": "address"
        },
        {
          "indexed": false,
          "internalType": "uint256",
          "name": "price",
          "type": "uint256"
        }
      ],
      "name": "TicketListed",
      "type": "event"
    },
    {
      "anonymous": false,
      "inputs": [
        {
          "indexed": true,
          "internalType": "uint256",
          "name": "tokenId",
          "type": "uint256"
        },
        {
          "indexed": true,
          "internalType": "address",
          "name": "seller",
          "type": "address"
        },
        {
          "indexed": true,
          "internalType": "address",
          "name": "buyer",
          "type": "address"
        },
        {
          "indexed": false,
          "internalType": "uint256",
          "name": "price",
          "type": "uint256"
        },
        {
          "indexed": false,
          "internalType": "uint256",
          "name": "fee",
          "type": "uint256"
        }
      ],
      "name": "TicketSold",
      "type": "event"
    },
    {
      "inputs": [],
      "name": "DEFAULT_ADMIN_ROLE",
      "outputs": [
        {
          "internalType": "bytes32",
          "name": "",
          "type": "bytes32"
        }
      ],
      "stateMutability": "view",
      "type": "function"
    },
    {
      "inputs": [],
      "name": "FEE_DENOMINATOR",
      "outputs": [
        {
          "internalType": "uint256",
          "name": "",
          "type": "uint256"
        }
      ],
      "stateMutability": "view",
      "type": "function"
    },
    {
      "inputs": [],
      "name": "MAX_FEE",
      "outputs": [
        {
          "internalType": "uint256",
          "name": "",
          "type": "uint256"
        }
      ],
      "stateMutability": "view",
      "type": "function"
    },
    {
      "inputs": [],
      "name": "PRICE_DENOMINATOR",
      "outputs": [
        {
          "internalType": "uint256",
          "name": "",
          "type": "uint256"
        }
      ],
      "stateMutability": "view",
      "type": "function"
    },
    {
      "inputs": [],
      "name": "accessControl",
      "outputs": [
        {
          "internalType": "contract TicketAccessControl",
          "name": "",
          "type": "address"
        }
      ],
      "stateMutability": "view",
      "type": "function"
    },
    {
      "inputs": [
        {
          "internalType": "uint256",
          "name": "tokenId",
          "type": "uint256"
        }
      ],
      "name": "buyResaleTicket",
      "outputs": [],
      "stateMutability": "payable",
      "type": "function"
    },
    {
      "inputs": [
        {
          "internalType": "uint256",
          "name": "tokenId",
          "type": "uint256"
        }
      ],
      "name": "cancelListing",
      "outputs": [],
      "stateMutability": "nonpayable",
      "type": "function"
    },
    {
      "inputs": [],
      "name": "eventManager",
      "outputs": [
        {
          "internalType": "contract EventManager",
          "name": "",
          "type": "address"
        }
      ],
      "stateMutability": "view",
      "type": "function"
    },
    {
      "inputs": [],
      "name": "feeRecipient",
      "outputs": [
        {
          "internalType": "address",
          "name": "",
          "type": "address"
        }
      ],
      "stateMutability": "view",
      "type": "function"
    },
    {
      "inputs": [
        {
          "internalType": "uint256",
          "name": "tokenId",
          "type": "uint256"
        }
      ],
      "name": "getListing",
      "outputs": [
        {
          "components": [
            {
              "internalType": "uint256",
              "name": "tokenId",
              "type": "uint256"
            },
            {
              "internalType": "address",
              "name": "seller",
              "type": "address"
            },
            {
              "internalType": "uint256",
              "name": "price",
              "type": "uint256"
            },
            {
              "internalType": "bool",
              "name": "active",
              "type": "bool"
            },
            {
              "internalType": "uint256",
              "name": "listedAt",
              "type": "uint256"
            }
          ],
          "internalType": "struct TicketMarketplace.Listing",
          "name": "",
          "type": "tuple"
        }
      ],
      "stateMutability": "view",
      "type": "function"
    },
    {
      "inputs": [
        {
          "internalType": "bytes32",
          "name": "role",
          "type": "bytes32"
        }
      ],
      "name": "getRoleAdmin",
      "outputs": [
        {
          "internalType": "bytes32",
          "name": "",
          "type": "bytes32"
        }
      ],
      "stateMutability": "view",
      "type": "function"
    },
    {
      "inputs": [
        {
          "internalType": "address",
          "name": "seller",
          "type": "address"
        }
      ],
      "name": "getSellerListings",
      "outputs": [
        {
          "internalType": "uint256[]",
          "name": "",
          "type": "uint256[]"
        }
      ],
      "stateMutability": "view",
      "type": "function"
    },
    {
      "inputs": [
        {
          "internalType": "bytes32",
          "name": "role",
          "type": "bytes32"
        },
        {
          "internalType": "address",
          "name": "account",
          "type": "address"
        }
      ],
      "name": "grantRole",
      "outputs": [],
      "stateMutability": "nonpayable",
      "type": "function"
    },
    {
      "inputs": [
        {
          "internalType": "bytes32",
          "name": "role",
          "type": "bytes32"
        },
        {
          "internalType": "address",
          "name": "account",
          "type": "address"
        }
      ],
      "name": "hasRole",
      "outputs": [
        {
          "internalType": "bool",
          "name": "",
          "type": "bool"
        }
      ],
      "stateMutability": "view",
      "type": "function"
    },
    {
      "inputs": [
        {
          "internalType": "uint256",
          "name": "tokenId",
          "type": "uint256"
        },
        {
          "internalType": "uint256",
          "name": "price",
          "type": "uint256"
        }
      ],
      "name": "listTicketForResale",
      "outputs": [],
      "stateMutability": "nonpayable",
      "type": "function"
    },
    {
      "inputs": [
        {
          "internalType": "uint256",
          "name": "",
          "type": "uint256"
        }
      ],
      "name": "listings",
      "outputs": [
        {
          "internalType": "uint256",
          "name": "tokenId",
          "type": "uint256"
        },
        {
          "internalType": "address",
          "name": "seller",
          "type": "address"
        },
        {
          "internalType": "uint256",
          "name": "price",
          "type": "uint256"
        },
        {
          "internalType": "bool",
          "name": "active",
          "type": "bool"
        },
        {
          "internalType": "uint256",
          "name": "listedAt",
          "type": "uint256"
        }
      ],
      "stateMutability": "view",
      "type": "function"
    },
    {
      "inputs": [],
      "name": "maxPriceMultiplier",
      "outputs": [
        {
          "internalType": "uint256",
          "name": "",
          "type": "uint256"
        }
      ],
      "stateMutability": "view",
      "type": "function"
    },
    {
      "inputs": [],
      "name": "platformFee",
      "outputs": [
        {
          "internalType": "uint256",
          "name": "",
          "type": "uint256"
        }
      ],
      "stateMutability": "view",
      "type": "function"
    },
    {
      "inputs": [
        {
          "internalType": "bytes32",
          "name": "role",
          "type": "bytes32"
        },
        {
          "internalType": "address",
          "name": "callerConfirmation",
          "type": "address"
        }
      ],
      "name": "renounceRole",
      "outputs": [],
      "stateMutability": "nonpayable",
      "type": "function"
    },
    {
      "inputs": [
        {
          "internalType": "bytes32",
          "name": "role",
          "type": "bytes32"
        },
        {
          "internalType": "address",
          "name": "account",
          "type": "address"
        }
      ],
      "name": "revokeRole",
      "outputs": [],
      "stateMutability": "nonpayable",
      "type": "function"
    },
    {
      "inputs": [
        {
          "internalType": "address",
          "name": "",
          "type": "address"
        },
        {
          "internalType": "uint256",
          "name": "",
          "type": "uint256"
        }
      ],
      "name": "sellerListings",
      "outputs": [
        {
          "internalType": "uint256",
          "name": "",
          "type": "uint256"
        }
      ],
      "stateMutability": "view",
      "type": "function"
    },
    {
      "inputs": [
        {
          "internalType": "address",
          "name": "newRecipient",
          "type": "address"
        }
      ],
      "name": "setFeeRecipient",
      "outputs": [],
      "stateMutability": "nonpayable",
      "type": "function"
    },
    {
      "inputs": [
        {
          "internalType": "uint256",
          "name": "newMultiplier",
          "type": "uint256"
        }
      ],
      "name": "setMaxPriceMultiplier",
      "outputs": [],
      "stateMutability": "nonpayable",
      "type": "function"
    },
    {
      "inputs": [
        {
          "internalType": "uint256",
          "name": "newFee",
          "type": "uint256"
        }
      ],
      "name": "setPlatformFee",
      "outputs": [],
      "stateMutability": "nonpayable",
      "type": "function"
    },
    {
      "inputs": [
        {
          "internalType": "bytes4",
          "name": "interfaceId",
          "type": "bytes4"
        }
      ],
      "name": "supportsInterface",
      "outputs": [
        {
          "internalType": "bool",
          "name": "",
          "type": "bool"
        }
      ],
      "stateMutability": "view",
      "type": "function"
    },
    {
      "inputs": [],
      "name": "ticketNFT",
      "outputs": [
        {
          "internalType": "contract TicketNFT",
          "name": "",
          "type": "address"
        }
      ],
      "stateMutability": "view",
      "type": "function"
    }
  ],
  "bytecode": "0x60806040526101f4600755614e206008553480156200001d57600080fd5b5060405162001ca438038062001ca48339810160408190526200004091620000b5565b60018055600280546001600160a01b039586166001600160a01b031991821617909155600380549486169482169490941790935560048054928516928416929092179091556009805491909316911617905562000112565b80516001600160a01b0381168114620000b057600080fd5b919050565b60008060008060808587031215620000cc57600080fd5b620000d78562000098565b9350620000e76020860162000098565b9250620000f76040860162000098565b9150620001076060860162000098565b905092959194509250565b611b8280620001226000396000f3fe6080604052600436106101815760003560e01c80636053b0ef116100d1578063b393391b1161008a578063d73792a911610064578063d73792a9146103d1578063de74e57b146104a8578063dfc1952014610531578063e74b981b1461055157600080fd5b8063b393391b14610452578063bc063e1a14610472578063d547741f1461048857600080fd5b80636053b0ef146103b15780636c1516e1146103d15780638ec4b721146103e75780638fd611be146103fd57806391d148541461041d578063a217fddf1461043d57600080fd5b8063248a9ca31161013e578063305a67a811610118578063305a67a81461032457806336568abe1461034457806346904840146103645780635f42da091461038457600080fd5b8063248a9ca3146102be57806326232a2e146102ee5780632f2ff15d1461030457600080fd5b806301ffc9a714610186578063054564f0146101bb578063107a274a146101e957806312e8e2c31461025157806313007d55146102735780631d9c5d5c146102ab575b600080fd5b34801561019257600080fd5b506101a66101a136600461171e565b610571565b60405190151581526020015b60405180910390f35b3480156101c757600080fd5b506101db6101d6366004611764565b6105a8565b6040519081526020016101b2565b3480156101f557600080fd5b50610209610204366004611790565b6105d9565b6040516101b29190815181526020808301516001600160a01b031690820152604080830151908201526060808301511515908201526080918201519181019190915260a00190565b34801561025d57600080fd5b5061027161026c366004611790565b610673565b005b34801561027f57600080fd5b50600254610293906001600160a01b031681565b6040516001600160a01b0390911681526020016101b2565b6102716102b9366004611790565b610802565b3480156102ca57600080fd5b506101db6102d9366004611790565b60009081526020819052604090206001015490565b3480156102fa57600080fd5b506101db60075481565b34801561031057600080fd5b5061027161031f3660046117a9565b610c85565b34801561033057600080fd5b5061027161033f366004611790565b610cb0565b34801561035057600080fd5b5061027161035f3660046117a9565b610dc3565b34801561037057600080fd5b50600954610293906001600160a01b031681565b34801561039057600080fd5b506103a461039f3660046117d9565b610dfb565b6040516101b291906117f6565b3480156103bd57600080fd5b506102716103cc36600461183a565b610e67565b3480156103dd57600080fd5b506101db61271081565b3480156103f357600080fd5b506101db60085481565b34801561040957600080fd5b50600454610293906001600160a01b031681565b34801561042957600080fd5b506101a66104383660046117a9565b61125e565b34801561044957600080fd5b506101db600081565b34801561045e57600080fd5b50600354610293906001600160a01b031681565b34801561047e57600080fd5b506101db6103e881565b34801561049457600080fd5b506102716104a33660046117a9565b611287565b3480156104b457600080fd5b506104ff6104c3366004611790565b6005602052600090815260409020805460018201546002830154600384015460049094015492936001600160a01b0390921692909160ff169085565b604080519586526001600160a01b0390941660208601529284019190915215156060830152608082015260a0016101b2565b34801561053d57600080fd5b5061027161054c366004611790565b6112ac565b34801561055d57600080fd5b5061027161056c3660046117d9565b611439565b60006001600160e01b03198216637965db0b60e01b14806105a257506301ffc9a760e01b6001600160e01b03198316145b92915050565b600660205281600052604060002081815481106105c457600080fd5b90600052602060002001600091509150505481565b6106166040518060a001604052806000815260200160006001600160a01b0316815260200160008152602001600015158152602001600081525090565b50600090815260056020908152604091829020825160a0810184528154815260018201546001600160a01b031692810192909252600281015492820192909252600382015460ff1615156060820152600490910154608082015290565b60025460408051631d6c8e3f60e21b815290516001600160a01b03909216916391d148549183916375b238fc916004808201926020929091908290030181865afa1580156106c5573d6000803e3d6000fd5b505050506040513d601f19601f820116820180604052508101906106e9919061185c565b6040516001600160e01b031960e084901b1681526004810191909152336024820152604401602060405180830381865afa15801561072b573d6000803e3d6000fd5b505050506040513d601f19601f8201168201806040525081019061074f919061188a565b6107745760405162461bcd60e51b815260040161076b906118a5565b60405180910390fd5b6103e88111156107c65760405162461bcd60e51b815260206004820152601f60248201527f5469636b65744d61726b6574706c6163653a2066656520746f6f206869676800604482015260640161076b565b60078190556040518181527f45610d581145924dd7090a5017e5f2b1d6f42213bb2e95707ff86846bbfcb1ca906020015b60405180910390a150565b61080a6115b4565b6000818152600560205260409020600381015460ff166108785760405162461bcd60e51b8152602060048201526024808201527f5469636b65744d61726b6574706c6163653a207469636b6574206e6f74206c696044820152631cdd195960e21b606482015260840161076b565b60018101546001600160a01b031633036108e55760405162461bcd60e51b815260206004820152602860248201527f5469636b65744d61726b6574706c6163653a2063616e6e6f7420627579206f776044820152671b881d1a58dad95d60c21b606482015260840161076b565b80600201543410156109495760405162461bcd60e51b815260206004820152602760248201527f5469636b65744d61726b6574706c6163653a20696e73756666696369656e74206044820152661c185e5b595b9d60ca1b606482015260840161076b565b60038101805460ff1916905560075460028201546000916127109161096e91906118f0565b6109789190611907565b9050600081836002015461098c9190611929565b6003546001850154604051632142170760e11b81526001600160a01b0391821660048201523360248201526044810188905292935016906342842e0e90606401600060405180830381600087803b1580156109e657600080fd5b505af11580156109fa573d6000803e3d6000fd5b5050505060018301546040516000916001600160a01b03169083908381818185875af1925050503d8060008114610a4d576040519150601f19603f3d011682016040523d82523d6000602084013e610a52565b606091505b5050905080610ab75760405162461bcd60e51b815260206004820152602b60248201527f5469636b65744d61726b6574706c6163653a207061796d656e7420746f20736560448201526a1b1b195c8819985a5b195960aa1b606482015260840161076b565b8215610b70576009546040516000916001600160a01b03169085908381818185875af1925050503d8060008114610b0a576040519150601f19603f3d011682016040523d82523d6000602084013e610b0f565b606091505b5050905080610b6e5760405162461bcd60e51b815260206004820152602560248201527f5469636b65744d61726b6574706c6163653a20666565207061796d656e742066604482015264185a5b195960da1b606482015260840161076b565b505b8360020154341115610c245760028401546000903390610b909034611929565b604051600081818185875af1925050503d8060008114610bcc576040519150601f19603f3d011682016040523d82523d6000602084013e610bd1565b606091505b5050905080610c225760405162461bcd60e51b815260206004820181905260248201527f5469636b65744d61726b6574706c6163653a20726566756e64206661696c6564604482015260640161076b565b505b60018401546002850154604080519182526020820186905233926001600160a01b03169188917f9f06fa0e27b6e648325c777b4a32d84d65596bac30bd2c07f9e2c6e883bc1120910160405180910390a450505050610c8260018055565b50565b600082815260208190526040902060010154610ca0816115de565b610caa83836115e8565b50505050565b610cb86115b4565b6000818152600560205260409020600381015460ff16610d1a5760405162461bcd60e51b815260206004820152601d60248201527f5469636b65744d61726b6574706c6163653a206e6f74206c6973746564000000604482015260640161076b565b60018101546001600160a01b03163314610d825760405162461bcd60e51b8152602060048201526024808201527f5469636b65744d61726b6574706c6163653a206e6f74206c697374696e67206f6044820152633bb732b960e11b606482015260840161076b565b60038101805460ff1916905560405182907f411aee90354c51b1b04cd563fcab2617142a9d50da19232d888547c8a1b7fd8a90600090a250610c8260018055565b6001600160a01b0381163314610dec5760405163334bd91960e11b815260040160405180910390fd5b610df6828261167a565b505050565b6001600160a01b038116600090815260066020908152604091829020805483518184028101840190945280845260609392830182828015610e5b57602002820191906000526020600020905b815481526020019060010190808311610e47575b50505050509050919050565b610e6f6115b4565b6003546040516331a9108f60e11b81526004810184905233916001600160a01b031690636352211e90602401602060405180830381865afa158015610eb8573d6000803e3d6000fd5b505050506040513d601f19601f82011682018060405250810190610edc9190611947565b6001600160a01b031614610f3e5760405162461bcd60e51b815260206004820152602360248201527f5469636b65744d61726b6574706c6163653a206e6f74207469636b6574206f776044820152623732b960e91b606482015260840161076b565b60008111610fa65760405162461bcd60e51b815260206004820152602f60248201527f5469636b65744d61726b6574706c6163653a207072696365206d75737420626560448201526e02067726561746572207468616e203608c1b606482015260840161076b565b60008281526005602052604090206003015460ff16156110125760405162461bcd60e51b815260206004820152602160248201527f5469636b65744d61726b6574706c6163653a20616c7265616479206c697374656044820152601960fa1b606482015260840161076b565b60035460405163cc9d707160e01b8152600481018490526000916001600160a01b03169063cc9d707190602401602060405180830381865afa15801561105c573d6000803e3d6000fd5b505050506040513d601f19601f82011682018060405250810190611080919061185c565b60048054604051630368c42760e51b81529182018390529192506000916001600160a01b031690636d1884e090602401600060405180830381865afa1580156110cd573d6000803e3d6000fd5b505050506040513d6000823e601f3d908101601f191682016040526110f59190810190611a5a565b90506000612710600854836060015161110e91906118f0565b6111189190611907565b90508084111561117b5760405162461bcd60e51b815260206004820152602860248201527f5469636b65744d61726b6574706c6163653a2070726963652065786365656473604482015267206d6178696d756d60c01b606482015260840161076b565b6040805160a081018252868152336020808301828152838501898152600160608601818152426080880190815260008e81526005875289812098518955945188840180546001600160a01b0319166001600160a01b03909216919091179055925160028801555160038701805460ff1916911515919091179055905160049095019490945582815260068252848120805494850181558152819020909201889055915186815287917f22968ec3be3687b180f3544163a034b88d57b48159d9a7e9a1b610fdb2d05f80910160405180910390a350505061125a60018055565b5050565b6000918252602082815260408084206001600160a01b0393909316845291905290205460ff1690565b6000828152602081905260409020600101546112a2816115de565b610caa838361167a565b60025460408051631d6c8e3f60e21b815290516001600160a01b03909216916391d148549183916375b238fc916004808201926020929091908290030181865afa1580156112fe573d6000803e3d6000fd5b505050506040513d601f19601f82011682018060405250810190611322919061185c565b6040516001600160e01b031960e084901b1681526004810191909152336024820152604401602060405180830381865afa158015611364573d6000803e3d6000fd5b505050506040513d601f19601f82011682018060405250810190611388919061188a565b6113a45760405162461bcd60e51b815260040161076b906118a5565b6127108110156114045760405162461bcd60e51b815260206004820152602560248201527f5469636b65744d61726b6574706c6163653a206d756c7469706c69657220746f6044820152646f206c6f7760d81b606482015260840161076b565b60088190556040518181527f5a5fb1ef3078d44d66dd6e58e312d187c8a622b458196431d72ec7e7037aabfa906020016107f7565b60025460408051631d6c8e3f60e21b815290516001600160a01b03909216916391d148549183916375b238fc916004808201926020929091908290030181865afa15801561148b573d6000803e3d6000fd5b505050506040513d601f19601f820116820180604052508101906114af919061185c565b6040516001600160e01b031960e084901b1681526004810191909152336024820152604401602060405180830381865afa1580156114f1573d6000803e3d6000fd5b505050506040513d601f19601f82011682018060405250810190611515919061188a565b6115315760405162461bcd60e51b815260040161076b906118a5565b6001600160a01b0381166115925760405162461bcd60e51b815260206004820152602260248201527f5469636b65744d61726b6574706c6163653a20696e76616c6964206164647265604482015261737360f01b606482015260840161076b565b600980546001600160a01b0319166001600160a01b0392909216919091179055565b6002600154036115d757604051633ee5aeb560e01b815260040160405180910390fd5b6002600155565b610c8281336116e5565b60006115f4838361125e565b611672576000838152602081815260408083206001600160a01b03861684529091529020805460ff1916600117905561162a3390565b6001600160a01b0316826001600160a01b0316847f2f8788117e7eff1d82e926ec794901d17c78024a50270940304540a733656f0d60405160405180910390a45060016105a2565b5060006105a2565b6000611686838361125e565b15611672576000838152602081815260408083206001600160a01b0386168085529252808320805460ff1916905551339286917ff6391f5c32d9c69d2a47ea670b442974b53935d1edc7fd64eb21e047a839171b9190a45060016105a2565b6116ef828261125e565b61125a5760405163e2517d3f60e01b81526001600160a01b03821660048201526024810183905260440161076b565b60006020828403121561173057600080fd5b81356001600160e01b03198116811461174857600080fd5b9392505050565b6001600160a01b0381168114610c8257600080fd5b6000806040838503121561177757600080fd5b82356117828161174f565b946020939093013593505050565b6000602082840312156117a257600080fd5b5035919050565b600080604083850312156117bc57600080fd5b8235915060208301356117ce8161174f565b809150509250929050565b6000602082840312156117eb57600080fd5b81356117488161174f565b6020808252825182820181905260009190848201906040850190845b8181101561182e57835183529284019291840191600101611812565b50909695505050505050565b6000806040838503121561184d57600080fd5b50508035926020909101359150565b60006020828403121561186e57600080fd5b5051919050565b8051801515811461188557600080fd5b919050565b60006020828403121561189c57600080fd5b61174882611875565b6020808252818101527f5469636b65744d61726b6574706c6163653a206d7573742062652061646d696e604082015260600190565b634e487b7160e01b600052601160045260246000fd5b80820281158282048414176105a2576105a26118da565b60008261192457634e487b7160e01b600052601260045260246000fd5b500490565b818103818111156105a2576105a26118da565b80516118858161174f565b60006020828403121561195957600080fd5b81516117488161174f565b634e487b7160e01b600052604160045260246000fd5b604051610160810167ffffffffffffffff8111828210171561199e5761199e611964565b60405290565b604051601f8201601f1916810167ffffffffffffffff811182821017156119cd576119cd611964565b604052919050565b600082601f8301126119e657600080fd5b815167ffffffffffffffff811115611a0057611a00611964565b6020611a14601f8301601f191682016119a4565b8281528582848701011115611a2857600080fd5b60005b83811015611a46578581018301518282018401528201611a2b565b506000928101909101919091529392505050565b600060208284031215611a6c57600080fd5b815167ffffffffffffffff80821115611a8457600080fd5b908301906101608286031215611a9957600080fd5b611aa161197a565b82518152611ab16020840161193c565b6020820152604083015182811115611ac857600080fd5b611ad4878286016119d5565b604083015250606083015160608201526080830151608082015260a083015160a082015260c083015160c082015260e083015160e0820152610100915081830151828201526101209150611b29828401611875565b828201526101409150611b3d828401611875565b9181019190915294935050505056fea264697066735822122094fbc15a3d7472faa560d57a84dc513a170fe368cc8c09bc17fdfef8662a848564736f6c63430008140033",
  "linkReferences": {},
  "deployedLinkReferences": {}
}